{
  "address": "0xEBe39E3B30230cf48d4580fCF6d50285B1Fc4205",
  "abi": [
    {
      "inputs": [
        {
          "internalType": "address",
          "name": "stETH",
          "type": "address"
        },
        {
          "internalType": "address",
          "name": "resilientOracle",
          "type": "address"
        }
      ],
      "stateMutability": "nonpayable",
      "type": "constructor"
    },
    {
      "inputs": [],
      "name": "InvalidTokenAddress",
      "type": "error"
    },
    {
      "inputs": [],
      "name": "ZeroAddressNotAllowed",
      "type": "error"
    },
    {
      "inputs": [],
      "name": "RESILIENT_ORACLE",
      "outputs": [
        {
          "internalType": "contract OracleInterface",
          "name": "",
          "type": "address"
        }
      ],
      "stateMutability": "view",
      "type": "function"
    },
    {
      "inputs": [],
      "name": "UNDERLYING_TOKEN",
      "outputs": [
        {
          "internalType": "address",
          "name": "",
          "type": "address"
        }
      ],
      "stateMutability": "view",
      "type": "function"
    },
    {
      "inputs": [
        {
          "internalType": "address",
          "name": "correlatedToken",
          "type": "address"
        }
      ],
      "name": "getPrice",
      "outputs": [
        {
          "internalType": "uint256",
          "name": "",
          "type": "uint256"
        }
      ],
      "stateMutability": "view",
      "type": "function"
    }
  ],
  "transactionHash": "0xc5d2a661e50056b0ee957eea759c82263a38a6bba699d8cb1c6ef1a53a2c07c2",
  "args": [
    "0xae7ab96520DE3A18E5e111B5EaAb095312D7fE84",
    "0x9b3989dC82b344D9Df9a986Ff4CC37B895e3fB87"
  ],
  "numDeployments": 1,
  "solcInputHash": "c11a1817c3f544fec41d67932059648d",
  "bytecode": "0x60c060405234801561001057600080fd5b5060405161042138038061042183398101604081905261002f916100a3565b818161003a8261005d565b6100438161005d565b6001600160a01b039182166080521660a052506100d69050565b6001600160a01b038116610084576040516342bcdf7f60e11b815260040160405180910390fd5b50565b80516001600160a01b038116811461009e57600080fd5b919050565b600080604083850312156100b657600080fd5b6100bf83610087565b91506100cd60208401610087565b90509250929050565b60805160a05161031461010d6000396000818160b00152610123015260008181604b0152818160f501526101d501526103146000f3fe608060405234801561001057600080fd5b50600436106100415760003560e01c806329db1be61461004657806341976e091461008a578063a4edcd4c146100ab575b600080fd5b61006d7f000000000000000000000000000000000000000000000000000000000000000081565b6040516001600160a01b0390911681526020015b60405180910390f35b61009d61009836600461024e565b6100d2565b604051908152602001610081565b61006d7f000000000000000000000000000000000000000000000000000000000000000081565b6000806100de836101b5565b6040516341976e0960e01b81526001600160a01b037f0000000000000000000000000000000000000000000000000000000000000000811660048301529192506000917f000000000000000000000000000000000000000000000000000000000000000016906341976e0990602401602060405180830381865afa15801561016a573d6000803e3d6000fd5b505050506040513d601f19601f8201168201806040525081019061018e919061027e565b9050670de0b6b3a76400006101a38284610297565b6101ad91906102bc565b949350505050565b604051630f451f7160e31b8152670de0b6b3a764000060048201526000907f00000000000000000000000000000000000000000000000000000000000000006001600160a01b031690637a28fb8890602401602060405180830381865afa158015610224573d6000803e3d6000fd5b505050506040513d601f19601f82011682018060405250810190610248919061027e565b92915050565b60006020828403121561026057600080fd5b81356001600160a01b038116811461027757600080fd5b9392505050565b60006020828403121561029057600080fd5b5051919050565b808202811582820484141761024857634e487b7160e01b600052601160045260246000fd5b6000826102d957634e487b7160e01b600052601260045260246000fd5b50049056fea264697066735822122064f58ac7b2ac3c572d0babe6c9fc62a52fcea8d1a26401c266abd7615baee28364736f6c63430008190033",
  "devdoc": {
    "author": "Venus",
    "kind": "dev",
    "methods": {
      "constructor": {
        "custom:oz-upgrades-unsafe-allow": "constructor"
      },
      "getPrice(address)": {
        "params": {
          "correlatedToken": "Address of the correlated token"
        },
        "returns": {
          "_0": "price The price of the correlated token in scaled decimal places"
        }
      }
    },
    "title": "WstETHOracle renamed from WstETHOracleV2 in venus",
    "version": 1
  },
  "userdoc": {
    "errors": {
      "InvalidTokenAddress()": [
        {
          "notice": "Thrown if the token address is invalid"
        }
      ],
      "ZeroAddressNotAllowed()": [
        {
          "notice": "Thrown if the supplied address is a zero address where it is not allowed"
        }
      ]
    },
    "kind": "user",
    "methods": {
      "RESILIENT_ORACLE()": {
        "notice": "Address of Resilient Oracle"
      },
      "UNDERLYING_TOKEN()": {
        "notice": "Address of the underlying token"
      },
      "constructor": {
        "notice": "Constructor for the implementation contract."
      },
      "getPrice(address)": {
        "notice": "Fetches the price of the correlated token"
      }
    },
    "notice": "This oracle fetches the price of wstETH",
    "version": 1
  },
  "storageLayout": {
    "storage": [],
    "types": null
  }
}