{
  "address": "0x707B2c28Dd49980Da9CfCecF96CbaD98D32219E4",
  "abi": [
    {
      "inputs": [
        {
          "internalType": "address",
          "name": "accessControlManager_",
          "type": "address"
        }
      ],
      "stateMutability": "nonpayable",
      "type": "constructor"
    },
    {
      "inputs": [
        {
          "internalType": "address",
          "name": "sender",
          "type": "address"
        },
        {
          "internalType": "address",
          "name": "calledContract",
          "type": "address"
        },
        {
          "internalType": "string",
          "name": "methodSignature",
          "type": "string"
        }
      ],
      "name": "Unauthorized",
      "type": "error"
    },
    {
      "anonymous": false,
      "inputs": [
        {
          "indexed": false,
          "internalType": "address",
          "name": "oldAccessControlManager",
          "type": "address"
        },
        {
          "indexed": false,
          "internalType": "address",
          "name": "newAccessControlManager",
          "type": "address"
        }
      ],
      "name": "NewAccessControlManager",
      "type": "event"
    },
    {
      "anonymous": false,
      "inputs": [
        {
          "indexed": true,
          "internalType": "address",
          "name": "previousOwner",
          "type": "address"
        },
        {
          "indexed": true,
          "internalType": "address",
          "name": "newOwner",
          "type": "address"
        }
      ],
      "name": "OwnershipTransferStarted",
      "type": "event"
    },
    {
      "anonymous": false,
      "inputs": [
        {
          "indexed": true,
          "internalType": "address",
          "name": "previousOwner",
          "type": "address"
        },
        {
          "indexed": true,
          "internalType": "address",
          "name": "newOwner",
          "type": "address"
        }
      ],
      "name": "OwnershipTransferred",
      "type": "event"
    },
    {
      "anonymous": false,
      "inputs": [
        {
          "indexed": true,
          "internalType": "address",
          "name": "asset",
          "type": "address"
        },
        {
          "indexed": false,
          "internalType": "uint256",
          "name": "previousPriceMantissa",
          "type": "uint256"
        },
        {
          "indexed": false,
          "internalType": "uint256",
          "name": "newPriceMantissa",
          "type": "uint256"
        }
      ],
      "name": "PricePosted",
      "type": "event"
    },
    {
      "anonymous": false,
      "inputs": [
        {
          "indexed": true,
          "internalType": "address",
          "name": "asset",
          "type": "address"
        },
        {
          "indexed": false,
          "internalType": "address",
          "name": "feed",
          "type": "address"
        },
        {
          "indexed": false,
          "internalType": "uint256",
          "name": "maxStalePeriod",
          "type": "uint256"
        }
      ],
      "name": "TokenConfigAdded",
      "type": "event"
    },
    {
      "inputs": [],
      "name": "acceptOwnership",
      "outputs": [],
      "stateMutability": "nonpayable",
      "type": "function"
    },
    {
      "inputs": [],
      "name": "accessControlManager",
      "outputs": [
        {
          "internalType": "contract IAccessControlManagerV8",
          "name": "",
          "type": "address"
        }
      ],
      "stateMutability": "view",
      "type": "function"
    },
    {
      "inputs": [
        {
          "internalType": "address",
          "name": "asset",
          "type": "address"
        }
      ],
      "name": "getPrice",
      "outputs": [
        {
          "internalType": "uint256",
          "name": "",
          "type": "uint256"
        }
      ],
      "stateMutability": "view",
      "type": "function"
    },
    {
      "inputs": [],
      "name": "owner",
      "outputs": [
        {
          "internalType": "address",
          "name": "",
          "type": "address"
        }
      ],
      "stateMutability": "view",
      "type": "function"
    },
    {
      "inputs": [],
      "name": "pendingOwner",
      "outputs": [
        {
          "internalType": "address",
          "name": "",
          "type": "address"
        }
      ],
      "stateMutability": "view",
      "type": "function"
    },
    {
      "inputs": [
        {
          "internalType": "address",
          "name": "",
          "type": "address"
        }
      ],
      "name": "prices",
      "outputs": [
        {
          "internalType": "uint256",
          "name": "",
          "type": "uint256"
        }
      ],
      "stateMutability": "view",
      "type": "function"
    },
    {
      "inputs": [],
      "name": "renounceOwnership",
      "outputs": [],
      "stateMutability": "nonpayable",
      "type": "function"
    },
    {
      "inputs": [
        {
          "internalType": "address",
          "name": "accessControlManager_",
          "type": "address"
        }
      ],
      "name": "setAccessControlManager",
      "outputs": [],
      "stateMutability": "nonpayable",
      "type": "function"
    },
    {
      "inputs": [
        {
          "internalType": "address",
          "name": "asset",
          "type": "address"
        },
        {
          "internalType": "uint256",
          "name": "price",
          "type": "uint256"
        }
      ],
      "name": "setDirectPrice",
      "outputs": [],
      "stateMutability": "nonpayable",
      "type": "function"
    },
    {
      "inputs": [
        {
          "components": [
            {
              "internalType": "address",
              "name": "asset",
              "type": "address"
            },
            {
              "internalType": "address",
              "name": "feed",
              "type": "address"
            },
            {
              "internalType": "uint256",
              "name": "maxStalePeriod",
              "type": "uint256"
            }
          ],
          "internalType": "struct ChainlinkOracle.TokenConfig",
          "name": "tokenConfig",
          "type": "tuple"
        }
      ],
      "name": "setTokenConfig",
      "outputs": [],
      "stateMutability": "nonpayable",
      "type": "function"
    },
    {
      "inputs": [
        {
          "components": [
            {
              "internalType": "address",
              "name": "asset",
              "type": "address"
            },
            {
              "internalType": "address",
              "name": "feed",
              "type": "address"
            },
            {
              "internalType": "uint256",
              "name": "maxStalePeriod",
              "type": "uint256"
            }
          ],
          "internalType": "struct ChainlinkOracle.TokenConfig[]",
          "name": "tokenConfigs_",
          "type": "tuple[]"
        }
      ],
      "name": "setTokenConfigs",
      "outputs": [],
      "stateMutability": "nonpayable",
      "type": "function"
    },
    {
      "inputs": [
        {
          "internalType": "address",
          "name": "",
          "type": "address"
        }
      ],
      "name": "tokenConfigs",
      "outputs": [
        {
          "internalType": "address",
          "name": "asset",
          "type": "address"
        },
        {
          "internalType": "address",
          "name": "feed",
          "type": "address"
        },
        {
          "internalType": "uint256",
          "name": "maxStalePeriod",
          "type": "uint256"
        }
      ],
      "stateMutability": "view",
      "type": "function"
    },
    {
      "inputs": [
        {
          "internalType": "address",
          "name": "newOwner",
          "type": "address"
        }
      ],
      "name": "transferOwnership",
      "outputs": [],
      "stateMutability": "nonpayable",
      "type": "function"
    }
  ],
  "transactionHash": "0xec422d8e601eba1ef65c96de3da68689708a306bb9aa61ae3e5130b14a0fcb45",
  "args": [
    "0xbcbda48712A075fa7B50b4B6f8C42D40D4505F8B"
  ],
  "numDeployments": 1,
  "solcInputHash": "5cdf4a1f7b802e4f315466e77f4dd14c",
  "bytecode": "0x608060405234801561001057600080fd5b5060405161118c38038061118c83398101604081905261002f9161017c565b61003833610047565b61004181610063565b506101ac565b600180546001600160a01b03191690556100608161012c565b50565b6001600160a01b0381166100cb5760405162461bcd60e51b815260206004820152602560248201527f696e76616c696420616365737320636f6e74726f6c206d616e61676572206164604482015264647265737360d81b606482015260840160405180910390fd5b600280546001600160a01b038381166001600160a01b031983168117909355604080519190921680825260208201939093527f66fd58e82f7b31a2a5c30e0888f3093efe4e111b00cd2b0c31fe014601293aa0910160405180910390a15050565b600080546001600160a01b038381166001600160a01b0319831681178455604051919092169283917f8be0079c531659141344cd1fd0a4f28419497f9722a3daafe3b4186f6b6457e09190a35050565b60006020828403121561018e57600080fd5b81516001600160a01b03811681146101a557600080fd5b9392505050565b610fd1806101bb6000396000f3fe608060405234801561001057600080fd5b50600436106100cf5760003560e01c8063715018a61161008c578063b4a0bdf311610066578063b4a0bdf3146101df578063cfed246b146101f0578063e30c397814610210578063f2fde38b1461022157600080fd5b8063715018a6146101aa57806379ba5097146101b25780638da5cb5b146101ba57600080fd5b80630431710e146100d457806309a8acb0146100e95780630e32cb86146100fc5780631b69dc5f1461010f578063392787d21461017657806341976e0914610189575b600080fd5b6100e76100e2366004610bb2565b610234565b005b6100e76100f7366004610c62565b6102ba565b6100e761010a366004610c8c565b61037f565b61014b61011d366004610c8c565b6035602052600090815260409020805460018201546002909201546001600160a01b03918216929091169083565b604080516001600160a01b039485168152939092166020840152908201526060015b60405180910390f35b6100e7610184366004610cae565b610393565b61019c610197366004610c8c565b610508565b60405190815260200161016d565b6100e7610519565b6100e761052d565b6000546001600160a01b03165b6040516001600160a01b03909116815260200161016d565b6002546001600160a01b03166101c7565b61019c6101fe366004610c8c565b60346020526000908152604090205481565b6001546001600160a01b03166101c7565b6100e761022f366004610c8c565b6105a4565b805160000361027e5760405162461bcd60e51b815260206004820152601160248201527006c656e6774682063616e2774206265203607c1b60448201526064015b60405180910390fd5b805160005b818110156102b5576102ad8382815181106102a0576102a0610cca565b6020026020010151610393565b600101610283565b505050565b816001600160a01b0381166102e15760405162461bcd60e51b815260040161027590610ce0565b61031f6040518060400160405280601f81526020017f736574446972656374507269636528616464726573732c75696e743235362900815250610615565b6001600160a01b038316600081815260346020908152604091829020805490869055825181815291820186905292917fa0844d44570b5ec5ac55e9e7d1e7fc8149b4f33b4b61f3c8fc08bacce058faee910160405180910390a250505050565b6103876106b3565b6103908161070d565b50565b80516001600160a01b0381166103bb5760405162461bcd60e51b815260040161027590610ce0565b60208201516001600160a01b0381166103e65760405162461bcd60e51b815260040161027590610ce0565b6104246040518060400160405280601b81526020017f736574546f6b656e436f6e66696728546f6b656e436f6e666967290000000000815250610615565b82604001516000036104785760405162461bcd60e51b815260206004820152601a60248201527f7374616c6520706572696f642063616e2774206265207a65726f0000000000006044820152606401610275565b82516001600160a01b03908116600090815260356020908152604091829020865181549085166001600160a01b0319918216811783558389015160018401805491909716921682179095558388015160029092018290558351908152918201527f3cc8d9cb9370a23a8b9ffa75efa24cecb65c4693980e58260841adc474983c5f910160405180910390a2505050565b6000610513826107d2565b92915050565b6105216106b3565b61052b600061080b565b565b60015433906001600160a01b0316811461059b5760405162461bcd60e51b815260206004820152602960248201527f4f776e61626c6532537465703a2063616c6c6572206973206e6f7420746865206044820152683732bb9037bbb732b960b91b6064820152608401610275565b6103908161080b565b6105ac6106b3565b600180546001600160a01b0383166001600160a01b031990911681179091556105dd6000546001600160a01b031690565b6001600160a01b03167f38d16b8cac22d99fc7c124b9cd0de2d3fa1faef420bfe791d8c362d765e2270060405160405180910390a350565b6002546040516318c5e8ab60e01b81526000916001600160a01b0316906318c5e8ab906106489033908690600401610d55565b602060405180830381865afa158015610665573d6000803e3d6000fd5b505050506040513d601f19601f820116820180604052508101906106899190610d81565b9050806106af57333083604051634a3fa29360e01b815260040161027593929190610da3565b5050565b6000546001600160a01b0316331461052b5760405162461bcd60e51b815260206004820181905260248201527f4f776e61626c653a2063616c6c6572206973206e6f7420746865206f776e65726044820152606401610275565b6001600160a01b0381166107715760405162461bcd60e51b815260206004820152602560248201527f696e76616c696420616365737320636f6e74726f6c206d616e61676572206164604482015264647265737360d81b6064820152608401610275565b600280546001600160a01b038381166001600160a01b031983168117909355604080519190921680825260208201939093527f66fd58e82f7b31a2a5c30e0888f3093efe4e111b00cd2b0c31fe014601293aa0910160405180910390a15050565b6001600160a01b03811660009081526034602052604081205480156107f957809150610805565b61080283610824565b91505b50919050565b600180546001600160a01b031916905561039081610a97565b6001600160a01b038082166000908152603560205260408120549091168061085e5760405162461bcd60e51b815260040161027590610ce0565b6001600160a01b03808416600090815260356020908152604080832081516060810183528154861681526001820154909516858401819052600290910154858301819052825163313ce56760e01b81529251919490939092859263313ce567926004808401939192918290030181865afa1580156108e0573d6000803e3d6000fd5b505050506040513d601f19601f820116820180604052508101906109049190610dd8565b61090f906012610e11565b60ff169050600080846001600160a01b031663feaf968c6040518163ffffffff1660e01b815260040160a060405180830381865afa158015610955573d6000803e3d6000fd5b505050506040513d601f19601f820116820180604052508101906109799190610e44565b50935050925050600082136109d05760405162461bcd60e51b815260206004820181905260248201527f636861696e6c696e6b207072696365206d75737420626520706f7369746976656044820152606401610275565b80421015610a205760405162461bcd60e51b815260206004820152601c60248201527f757064617465644174206578636565647320626c6f636b2074696d65000000006044820152606401610275565b4281900384811115610a745760405162461bcd60e51b815260206004820152601760248201527f636861696e6c696e6b20707269636520657870697265640000000000000000006044820152606401610275565b610a7f84600a610f78565b610a899084610f84565b9a9950505050505050505050565b600080546001600160a01b038381166001600160a01b0319831681178455604051919092169283917f8be0079c531659141344cd1fd0a4f28419497f9722a3daafe3b4186f6b6457e09190a35050565b634e487b7160e01b600052604160045260246000fd5b604051601f8201601f1916810167ffffffffffffffff81118282101715610b2657610b26610ae7565b604052919050565b80356001600160a01b0381168114610b4557600080fd5b919050565b600060608284031215610b5c57600080fd5b6040516060810181811067ffffffffffffffff82111715610b7f57610b7f610ae7565b604052905080610b8e83610b2e565b8152610b9c60208401610b2e565b6020820152604083013560408201525092915050565b60006020808385031215610bc557600080fd5b823567ffffffffffffffff80821115610bdd57600080fd5b818501915085601f830112610bf157600080fd5b813581811115610c0357610c03610ae7565b610c11848260051b01610afd565b81815284810192506060918202840185019188831115610c3057600080fd5b938501935b82851015610c5657610c478986610b4a565b84529384019392850192610c35565b50979650505050505050565b60008060408385031215610c7557600080fd5b610c7e83610b2e565b946020939093013593505050565b600060208284031215610c9e57600080fd5b610ca782610b2e565b9392505050565b600060608284031215610cc057600080fd5b610ca78383610b4a565b634e487b7160e01b600052603260045260246000fd5b60208082526015908201527463616e2774206265207a65726f206164647265737360581b604082015260600190565b6000815180845260005b81811015610d3557602081850181015186830182015201610d19565b506000602082860101526020601f19601f83011685010191505092915050565b6001600160a01b0383168152604060208201819052600090610d7990830184610d0f565b949350505050565b600060208284031215610d9357600080fd5b81518015158114610ca757600080fd5b6001600160a01b03848116825283166020820152606060408201819052600090610dcf90830184610d0f565b95945050505050565b600060208284031215610dea57600080fd5b815160ff81168114610ca757600080fd5b634e487b7160e01b600052601160045260246000fd5b60ff828116828216039081111561051357610513610dfb565b805169ffffffffffffffffffff81168114610b4557600080fd5b600080600080600060a08688031215610e5c57600080fd5b610e6586610e2a565b9450602086015193506040860151925060608601519150610e8860808701610e2a565b90509295509295909350565b600181815b80851115610ecf578160001904821115610eb557610eb5610dfb565b80851615610ec257918102915b93841c9390800290610e99565b509250929050565b600082610ee657506001610513565b81610ef357506000610513565b8160018114610f095760028114610f1357610f2f565b6001915050610513565b60ff841115610f2457610f24610dfb565b50506001821b610513565b5060208310610133831016604e8410600b8410161715610f52575081810a610513565b610f5c8383610e94565b8060001904821115610f7057610f70610dfb565b029392505050565b6000610ca78383610ed7565b808202811582820484141761051357610513610dfb56fea2646970667358221220814aaf58e39bd4186d71ed248e46c7172cc2be5c3a5fc74203b5999e6c80543e64736f6c63430008190033",
  "devdoc": {
    "author": "Venus",
    "kind": "dev",
    "methods": {
      "acceptOwnership()": {
        "details": "The new owner accepts the ownership transfer."
      },
      "constructor": {
        "params": {
          "accessControlManager_": "Address of the access control manager contract"
        }
      },
      "getPrice(address)": {
        "params": {
          "asset": "Address of the asset"
        },
        "returns": {
          "_0": "Price in USD from Chainlink or a manually set price for the asset"
        }
      },
      "owner()": {
        "details": "Returns the address of the current owner."
      },
      "pendingOwner()": {
        "details": "Returns the address of the pending owner."
      },
      "renounceOwnership()": {
        "details": "Leaves the contract without owner. It will not be possible to call `onlyOwner` functions. Can only be called by the current owner. NOTE: Renouncing ownership will leave the contract without an owner, thereby disabling any functionality that is only available to the owner."
      },
      "setAccessControlManager(address)": {
        "custom:access": "Only Governance",
        "custom:event": "Emits NewAccessControlManager event",
        "details": "Admin function to set address of AccessControlManager",
        "params": {
          "accessControlManager_": "The new address of the AccessControlManager"
        }
      },
      "setDirectPrice(address,uint256)": {
        "custom:access": "Only Governance",
        "custom:event": "Emits PricePosted event on succesfully setup of asset price",
        "params": {
          "asset": "Asset address",
          "price": "Asset price in 18 decimals"
        }
      },
      "setTokenConfig((address,address,uint256))": {
        "custom:access": "Only Governance",
        "custom:error": "NotNullAddress error is thrown if asset address is nullNotNullAddress error is thrown if token feed address is nullRange error is thrown if maxStale period of token is not greater than zero",
        "custom:event": "Emits TokenConfigAdded event on succesfully setting of the token config",
        "params": {
          "tokenConfig": "Token config struct"
        }
      },
      "setTokenConfigs((address,address,uint256)[])": {
        "custom:access": "Only Governance",
        "custom:error": "Zero length error thrown, if length of the array in parameter is 0",
        "params": {
          "tokenConfigs_": "config array"
        }
      },
      "transferOwnership(address)": {
        "details": "Starts the ownership transfer of the contract to a new account. Replaces the pending transfer if there is one. Can only be called by the current owner."
      }
    },
    "title": "ChainlinkOracle",
    "version": 1
  },
  "userdoc": {
    "errors": {
      "Unauthorized(address,address,string)": [
        {
          "notice": "Thrown when the action is prohibited by AccessControlManager"
        }
      ]
    },
    "events": {
      "NewAccessControlManager(address,address)": {
        "notice": "Emitted when access control manager contract address is changed"
      },
      "PricePosted(address,uint256,uint256)": {
        "notice": "Emit when a price is manually set"
      },
      "TokenConfigAdded(address,address,uint256)": {
        "notice": "Emit when a token config is added"
      }
    },
    "kind": "user",
    "methods": {
      "accessControlManager()": {
        "notice": "Returns the address of the access control manager contract"
      },
      "constructor": {
        "notice": "Initializes the owner of the contract"
      },
      "getPrice(address)": {
        "notice": "Gets the price of a asset from the chainlink oracle"
      },
      "prices(address)": {
        "notice": "Manually set an override price, useful under extenuating conditions such as price feed failure"
      },
      "setAccessControlManager(address)": {
        "notice": "Sets the address of AccessControlManager"
      },
      "setDirectPrice(address,uint256)": {
        "notice": "Manually set the price of a given asset"
      },
      "setTokenConfig((address,address,uint256))": {
        "notice": "Add single token config. asset & feed cannot be null addresses and maxStalePeriod must be positive"
      },
      "setTokenConfigs((address,address,uint256)[])": {
        "notice": "Add multiple token configs at the same time"
      },
      "tokenConfigs(address)": {
        "notice": "Token config by assets"
      }
    },
    "notice": "This oracle fetches prices of assets from the Chainlink oracle.",
    "version": 1
  },
  "storageLayout": {
    "storage": [
      {
        "astId": 1417,
        "contract": "contracts/oracles/ChainlinkOracle.sol:ChainlinkOracle",
        "label": "_owner",
        "offset": 0,
        "slot": "0",
        "type": "t_address"
      },
      {
        "astId": 1530,
        "contract": "contracts/oracles/ChainlinkOracle.sol:ChainlinkOracle",
        "label": "_pendingOwner",
        "offset": 0,
        "slot": "1",
        "type": "t_address"
      },
      {
        "astId": 6227,
        "contract": "contracts/oracles/ChainlinkOracle.sol:ChainlinkOracle",
        "label": "_accessControlManager",
        "offset": 0,
        "slot": "2",
        "type": "t_contract(IAccessControlManagerV8)6539"
      },
      {
        "astId": 6232,
        "contract": "contracts/oracles/ChainlinkOracle.sol:ChainlinkOracle",
        "label": "__gap",
        "offset": 0,
        "slot": "3",
        "type": "t_array(t_uint256)49_storage"
      },
      {
        "astId": 8069,
        "contract": "contracts/oracles/ChainlinkOracle.sol:ChainlinkOracle",
        "label": "prices",
        "offset": 0,
        "slot": "52",
        "type": "t_mapping(t_address,t_uint256)"
      },
      {
        "astId": 8075,
        "contract": "contracts/oracles/ChainlinkOracle.sol:ChainlinkOracle",
        "label": "tokenConfigs",
        "offset": 0,
        "slot": "53",
        "type": "t_mapping(t_address,t_struct(TokenConfig)8064_storage)"
      }
    ],
    "types": {
      "t_address": {
        "encoding": "inplace",
        "label": "address",
        "numberOfBytes": "20"
      },
      "t_array(t_uint256)49_storage": {
        "base": "t_uint256",
        "encoding": "inplace",
        "label": "uint256[49]",
        "numberOfBytes": "1568"
      },
      "t_contract(IAccessControlManagerV8)6539": {
        "encoding": "inplace",
        "label": "contract IAccessControlManagerV8",
        "numberOfBytes": "20"
      },
      "t_mapping(t_address,t_struct(TokenConfig)8064_storage)": {
        "encoding": "mapping",
        "key": "t_address",
        "label": "mapping(address => struct ChainlinkOracle.TokenConfig)",
        "numberOfBytes": "32",
        "value": "t_struct(TokenConfig)8064_storage"
      },
      "t_mapping(t_address,t_uint256)": {
        "encoding": "mapping",
        "key": "t_address",
        "label": "mapping(address => uint256)",
        "numberOfBytes": "32",
        "value": "t_uint256"
      },
      "t_struct(TokenConfig)8064_storage": {
        "encoding": "inplace",
        "label": "struct ChainlinkOracle.TokenConfig",
        "members": [
          {
            "astId": 8057,
            "contract": "contracts/oracles/ChainlinkOracle.sol:ChainlinkOracle",
            "label": "asset",
            "offset": 0,
            "slot": "0",
            "type": "t_address"
          },
          {
            "astId": 8060,
            "contract": "contracts/oracles/ChainlinkOracle.sol:ChainlinkOracle",
            "label": "feed",
            "offset": 0,
            "slot": "1",
            "type": "t_address"
          },
          {
            "astId": 8063,
            "contract": "contracts/oracles/ChainlinkOracle.sol:ChainlinkOracle",
            "label": "maxStalePeriod",
            "offset": 0,
            "slot": "2",
            "type": "t_uint256"
          }
        ],
        "numberOfBytes": "96"
      },
      "t_uint256": {
        "encoding": "inplace",
        "label": "uint256",
        "numberOfBytes": "32"
      }
    }
  }
}