{
  "address": "0x60b3b1b4baCFd30712A779fb166279aA559f4405",
  "abi": [
    {
      "inputs": [
        {
          "internalType": "address",
          "name": "sy_",
          "type": "address"
        },
        {
          "internalType": "address",
          "name": "pt_",
          "type": "address"
        },
        {
          "internalType": "address",
          "name": "yt_",
          "type": "address"
        }
      ],
      "stateMutability": "nonpayable",
      "type": "constructor"
    },
    {
      "anonymous": false,
      "inputs": [
        {
          "indexed": true,
          "internalType": "address",
          "name": "previousOwner",
          "type": "address"
        },
        {
          "indexed": true,
          "internalType": "address",
          "name": "newOwner",
          "type": "address"
        }
      ],
      "name": "OwnershipTransferred",
      "type": "event"
    },
    {
      "inputs": [],
      "name": "exchangeRate",
      "outputs": [
        {
          "internalType": "uint256",
          "name": "",
          "type": "uint256"
        }
      ],
      "stateMutability": "view",
      "type": "function"
    },
    {
      "inputs": [],
      "name": "owner",
      "outputs": [
        {
          "internalType": "address",
          "name": "",
          "type": "address"
        }
      ],
      "stateMutability": "view",
      "type": "function"
    },
    {
      "inputs": [],
      "name": "ptToken",
      "outputs": [
        {
          "internalType": "address",
          "name": "",
          "type": "address"
        }
      ],
      "stateMutability": "view",
      "type": "function"
    },
    {
      "inputs": [],
      "name": "readTokens",
      "outputs": [
        {
          "internalType": "address",
          "name": "",
          "type": "address"
        },
        {
          "internalType": "address",
          "name": "",
          "type": "address"
        },
        {
          "internalType": "address",
          "name": "",
          "type": "address"
        }
      ],
      "stateMutability": "view",
      "type": "function"
    },
    {
      "inputs": [],
      "name": "renounceOwnership",
      "outputs": [],
      "stateMutability": "nonpayable",
      "type": "function"
    },
    {
      "inputs": [],
      "name": "syToken",
      "outputs": [
        {
          "internalType": "address",
          "name": "",
          "type": "address"
        }
      ],
      "stateMutability": "view",
      "type": "function"
    },
    {
      "inputs": [
        {
          "internalType": "address",
          "name": "newOwner",
          "type": "address"
        }
      ],
      "name": "transferOwnership",
      "outputs": [],
      "stateMutability": "nonpayable",
      "type": "function"
    },
    {
      "inputs": [
        {
          "internalType": "address",
          "name": "sy_",
          "type": "address"
        },
        {
          "internalType": "address",
          "name": "pt_",
          "type": "address"
        },
        {
          "internalType": "address",
          "name": "yt_",
          "type": "address"
        }
      ],
      "name": "writeTokens",
      "outputs": [],
      "stateMutability": "nonpayable",
      "type": "function"
    },
    {
      "inputs": [],
      "name": "ytToken",
      "outputs": [
        {
          "internalType": "address",
          "name": "",
          "type": "address"
        }
      ],
      "stateMutability": "view",
      "type": "function"
    }
  ],
  "transactionHash": "0x54e54045f044366f462939e40f76b18683f2d74f5fc28139176a0fac75a1e1eb",
  "args": [
    "0xb587DB62881645e9D8abfe2b1fD21787736bf0f6",
    "0x6EF93b90F52866261c205D8c7F9dB0eDE2Ba2AFB",
    "0x8A39f59Fa231D4c3ca0B9A6902aA1cB87883D13F"
  ],
  "numDeployments": 1,
  "solcInputHash": "5cdf4a1f7b802e4f315466e77f4dd14c",
  "bytecode": "0x60a060405234801561001057600080fd5b506040516104f43803806104f483398101604081905261002f916100e6565b6100383361007a565b600280546001600160a01b039485166001600160a01b031991821617909155600380549385169382169390931790925560048054919093169116179055610129565b600080546001600160a01b038381166001600160a01b0319831681178455604051919092169283917f8be0079c531659141344cd1fd0a4f28419497f9722a3daafe3b4186f6b6457e09190a35050565b80516001600160a01b03811681146100e157600080fd5b919050565b6000806000606084860312156100fb57600080fd5b610104846100ca565b9250610112602085016100ca565b9150610120604085016100ca565b90509250925092565b6080516103b3610141600039600050506103b36000f3fe608060405234801561001057600080fd5b50600436106100935760003560e01c8063715018a611610066578063715018a6146101255780638da5cb5b1461012f578063afcfb7f714610140578063e018b0ef14610153578063f2fde38b1461016657600080fd5b8063287b448d146100985780632c8ce6bc146100c85780633ba0b9a9146100fb5780634220301514610112575b600080fd5b6002546100ab906001600160a01b031681565b6040516001600160a01b0390911681526020015b60405180910390f35b600254600354600454604080516001600160a01b03948516815292841660208401529216918101919091526060016100bf565b61010460015481565b6040519081526020016100bf565b6004546100ab906001600160a01b031681565b61012d610179565b005b6000546001600160a01b03166100ab565b61012d61014e366004610318565b61018d565b6003546100ab906001600160a01b031681565b61012d61017436600461035b565b6101d4565b610181610252565b61018b60006102ac565b565b610195610252565b600280546001600160a01b039485166001600160a01b031991821617909155600380549385169382169390931790925560048054919093169116179055565b6101dc610252565b6001600160a01b0381166102465760405162461bcd60e51b815260206004820152602660248201527f4f776e61626c653a206e6577206f776e657220697320746865207a65726f206160448201526564647265737360d01b60648201526084015b60405180910390fd5b61024f816102ac565b50565b6000546001600160a01b0316331461018b5760405162461bcd60e51b815260206004820181905260248201527f4f776e61626c653a2063616c6c6572206973206e6f7420746865206f776e6572604482015260640161023d565b600080546001600160a01b038381166001600160a01b0319831681178455604051919092169283917f8be0079c531659141344cd1fd0a4f28419497f9722a3daafe3b4186f6b6457e09190a35050565b80356001600160a01b038116811461031357600080fd5b919050565b60008060006060848603121561032d57600080fd5b610336846102fc565b9250610344602085016102fc565b9150610352604085016102fc565b90509250925092565b60006020828403121561036d57600080fd5b610376826102fc565b939250505056fea26469706673582212200b58696b693e9f8962b4bd4f516f5884785e4f0e3240f753a7525f1d4966936364736f6c63430008190033",
  "devdoc": {
    "kind": "dev",
    "methods": {
      "owner()": {
        "details": "Returns the address of the current owner."
      },
      "renounceOwnership()": {
        "details": "Leaves the contract without owner. It will not be possible to call `onlyOwner` functions. Can only be called by the current owner. NOTE: Renouncing ownership will leave the contract without an owner, thereby disabling any functionality that is only available to the owner."
      },
      "transferOwnership(address)": {
        "details": "Transfers ownership of the contract to a new account (`newOwner`). Can only be called by the current owner."
      }
    },
    "version": 1
  },
  "userdoc": {
    "kind": "user",
    "methods": {},
    "version": 1
  },
  "storageLayout": {
    "storage": [
      {
        "astId": 1417,
        "contract": "contracts/test/MockPendleMarket.sol:MockPendleMarket",
        "label": "_owner",
        "offset": 0,
        "slot": "0",
        "type": "t_address"
      },
      {
        "astId": 10133,
        "contract": "contracts/test/MockPendleMarket.sol:MockPendleMarket",
        "label": "exchangeRate",
        "offset": 0,
        "slot": "1",
        "type": "t_uint256"
      },
      {
        "astId": 10135,
        "contract": "contracts/test/MockPendleMarket.sol:MockPendleMarket",
        "label": "syToken",
        "offset": 0,
        "slot": "2",
        "type": "t_address"
      },
      {
        "astId": 10137,
        "contract": "contracts/test/MockPendleMarket.sol:MockPendleMarket",
        "label": "ptToken",
        "offset": 0,
        "slot": "3",
        "type": "t_address"
      },
      {
        "astId": 10139,
        "contract": "contracts/test/MockPendleMarket.sol:MockPendleMarket",
        "label": "ytToken",
        "offset": 0,
        "slot": "4",
        "type": "t_address"
      }
    ],
    "types": {
      "t_address": {
        "encoding": "inplace",
        "label": "address",
        "numberOfBytes": "20"
      },
      "t_uint256": {
        "encoding": "inplace",
        "label": "uint256",
        "numberOfBytes": "32"
      }
    }
  }
}