{
  "address": "0x577Cd8BCD68f3883cDd46efB3d44B61C3559562A",
  "abi": [
    {
      "inputs": [
        {
          "internalType": "address",
          "name": "underlyingToken",
          "type": "address"
        },
        {
          "internalType": "address",
          "name": "resilientOracle",
          "type": "address"
        },
        {
          "internalType": "address",
          "name": "intermediateOracle",
          "type": "address"
        }
      ],
      "stateMutability": "nonpayable",
      "type": "constructor"
    },
    {
      "inputs": [],
      "name": "InvalidTokenAddress",
      "type": "error"
    },
    {
      "inputs": [],
      "name": "ZeroAddressNotAllowed",
      "type": "error"
    },
    {
      "inputs": [],
      "name": "INTERMEDIATE_ORACLE",
      "outputs": [
        {
          "internalType": "contract OracleInterface",
          "name": "",
          "type": "address"
        }
      ],
      "stateMutability": "view",
      "type": "function"
    },
    {
      "inputs": [],
      "name": "RESILIENT_ORACLE",
      "outputs": [
        {
          "internalType": "contract OracleInterface",
          "name": "",
          "type": "address"
        }
      ],
      "stateMutability": "view",
      "type": "function"
    },
    {
      "inputs": [],
      "name": "UNDERLYING_TOKEN",
      "outputs": [
        {
          "internalType": "address",
          "name": "",
          "type": "address"
        }
      ],
      "stateMutability": "view",
      "type": "function"
    },
    {
      "inputs": [
        {
          "internalType": "address",
          "name": "correlatedToken",
          "type": "address"
        }
      ],
      "name": "getPrice",
      "outputs": [
        {
          "internalType": "uint256",
          "name": "",
          "type": "uint256"
        }
      ],
      "stateMutability": "view",
      "type": "function"
    }
  ],
  "transactionHash": "0x23c67e27d0cb62bd38ce108286ba6476ec46a593b30627f30725dcbfa334533d",
  "args": [
    "0x7b79995e5f793A07Bc00c21412e50Ecae098E7f9",
    "0x949AFf0Ce79CF1b9c7E39cf0Fb5Bdb8deD1cE542",
    "0x707B2c28Dd49980Da9CfCecF96CbaD98D32219E4"
  ],
  "numDeployments": 3,
  "solcInputHash": "5cdf4a1f7b802e4f315466e77f4dd14c",
  "bytecode": "0x60e060405234801561001057600080fd5b5060405161047e38038061047e83398101604081905261002f916100b8565b828261003a82610072565b61004381610072565b6001600160a01b039182166080521660a05261005e81610072565b6001600160a01b031660c052506100fb9050565b6001600160a01b038116610099576040516342bcdf7f60e11b815260040160405180910390fd5b50565b80516001600160a01b03811681146100b357600080fd5b919050565b6000806000606084860312156100cd57600080fd5b6100d68461009c565b92506100e46020850161009c565b91506100f26040850161009c565b90509250925092565b60805160a05160c05161034261013c6000396000818160e2015261020b01526000818160bb01526101550152600081816056015261012701526103426000f3fe608060405234801561001057600080fd5b506004361061004c5760003560e01c806329db1be61461005157806341976e0914610095578063a4edcd4c146100b6578063ef4fa51b146100dd575b600080fd5b6100787f000000000000000000000000000000000000000000000000000000000000000081565b6040516001600160a01b0390911681526020015b60405180910390f35b6100a86100a336600461027d565b610104565b60405190815260200161008c565b6100787f000000000000000000000000000000000000000000000000000000000000000081565b6100787f000000000000000000000000000000000000000000000000000000000000000081565b600080610110836101e7565b6040516341976e0960e01b81526001600160a01b037f0000000000000000000000000000000000000000000000000000000000000000811660048301529192506000917f000000000000000000000000000000000000000000000000000000000000000016906341976e0990602401602060405180830381865afa15801561019c573d6000803e3d6000fd5b505050506040513d601f19601f820116820180604052508101906101c091906102a6565b9050670de0b6b3a76400006101d582846102bf565b6101df91906102ea565b949350505050565b6040516341976e0960e01b81526001600160a01b03828116600483015260009182917f000000000000000000000000000000000000000000000000000000000000000016906341976e0990602401602060405180830381865afa158015610252573d6000803e3d6000fd5b505050506040513d601f19601f8201168201806040525081019061027691906102a6565b9392505050565b60006020828403121561028f57600080fd5b81356001600160a01b038116811461027657600080fd5b6000602082840312156102b857600080fd5b5051919050565b80820281158282048414176102e457634e487b7160e01b600052601160045260246000fd5b92915050565b60008261030757634e487b7160e01b600052601260045260246000fd5b50049056fea264697066735822122034e3d492bb6b4dcdb69f728aeb282d35d4ff004a85f577a92bb6554ad439823a64736f6c63430008190033",
  "devdoc": {
    "author": "Venus",
    "kind": "dev",
    "methods": {
      "constructor": {
        "custom:oz-upgrades-unsafe-allow": "constructor"
      },
      "getPrice(address)": {
        "params": {
          "correlatedToken": "Address of the correlated token"
        },
        "returns": {
          "_0": "price The price of the correlated token in scaled decimal places"
        }
      }
    },
    "stateVariables": {
      "INTERMEDIATE_ORACLE": {
        "custom:oz-upgrades-unsafe-allow": "state-variable-immutable"
      }
    },
    "title": "OneJumpOracle",
    "version": 1
  },
  "userdoc": {
    "errors": {
      "InvalidTokenAddress()": [
        {
          "notice": "Thrown if the token address is invalid"
        }
      ],
      "ZeroAddressNotAllowed()": [
        {
          "notice": "Thrown if the supplied address is a zero address where it is not allowed"
        }
      ]
    },
    "kind": "user",
    "methods": {
      "INTERMEDIATE_ORACLE()": {
        "notice": "Address of the intermediate oracle"
      },
      "RESILIENT_ORACLE()": {
        "notice": "Address of Resilient Oracle"
      },
      "UNDERLYING_TOKEN()": {
        "notice": "Address of the underlying token"
      },
      "constructor": {
        "notice": "Constructor for the implementation contract."
      },
      "getPrice(address)": {
        "notice": "Fetches the price of the correlated token"
      }
    },
    "notice": "This oracle fetches the price of an asset in through an intermediate asset",
    "version": 1
  },
  "storageLayout": {
    "storage": [],
    "types": null
  }
}