{
  "address": "0xe703A7B9dDbB05Ef630Db11121017596EF52d2ac",
  "abi": [
    {
      "inputs": [
        {
          "internalType": "address",
          "name": "accessControlManager_",
          "type": "address"
        },
        {
          "internalType": "address",
          "name": "ptOracle",
          "type": "address"
        },
        {
          "internalType": "address",
          "name": "resilientOracle",
          "type": "address"
        }
      ],
      "stateMutability": "nonpayable",
      "type": "constructor"
    },
    {
      "inputs": [],
      "name": "InvalidDuration",
      "type": "error"
    },
    {
      "inputs": [
        {
          "internalType": "address",
          "name": "sender",
          "type": "address"
        },
        {
          "internalType": "address",
          "name": "calledContract",
          "type": "address"
        },
        {
          "internalType": "string",
          "name": "methodSignature",
          "type": "string"
        }
      ],
      "name": "Unauthorized",
      "type": "error"
    },
    {
      "inputs": [],
      "name": "ZeroAddressNotAllowed",
      "type": "error"
    },
    {
      "inputs": [],
      "name": "ZeroValueNotAllowed",
      "type": "error"
    },
    {
      "anonymous": false,
      "inputs": [
        {
          "indexed": false,
          "internalType": "address",
          "name": "oldAccessControlManager",
          "type": "address"
        },
        {
          "indexed": false,
          "internalType": "address",
          "name": "newAccessControlManager",
          "type": "address"
        }
      ],
      "name": "NewAccessControlManager",
      "type": "event"
    },
    {
      "anonymous": false,
      "inputs": [
        {
          "indexed": true,
          "internalType": "address",
          "name": "previousOwner",
          "type": "address"
        },
        {
          "indexed": true,
          "internalType": "address",
          "name": "newOwner",
          "type": "address"
        }
      ],
      "name": "OwnershipTransferStarted",
      "type": "event"
    },
    {
      "anonymous": false,
      "inputs": [
        {
          "indexed": true,
          "internalType": "address",
          "name": "previousOwner",
          "type": "address"
        },
        {
          "indexed": true,
          "internalType": "address",
          "name": "newOwner",
          "type": "address"
        }
      ],
      "name": "OwnershipTransferred",
      "type": "event"
    },
    {
      "anonymous": false,
      "inputs": [
        {
          "indexed": true,
          "internalType": "address",
          "name": "asset",
          "type": "address"
        },
        {
          "indexed": false,
          "internalType": "address",
          "name": "market",
          "type": "address"
        },
        {
          "indexed": false,
          "internalType": "uint32",
          "name": "twapDuration",
          "type": "uint32"
        }
      ],
      "name": "TokenConfigAdded",
      "type": "event"
    },
    {
      "anonymous": false,
      "inputs": [
        {
          "indexed": true,
          "internalType": "address",
          "name": "oldAddress",
          "type": "address"
        },
        {
          "indexed": true,
          "internalType": "address",
          "name": "newAddress",
          "type": "address"
        }
      ],
      "name": "UnderlyingAssetSet",
      "type": "event"
    },
    {
      "inputs": [],
      "name": "PT_ORACLE",
      "outputs": [
        {
          "internalType": "contract IPendlePtOracle",
          "name": "",
          "type": "address"
        }
      ],
      "stateMutability": "view",
      "type": "function"
    },
    {
      "inputs": [],
      "name": "RESILIENT_ORACLE",
      "outputs": [
        {
          "internalType": "contract OracleInterface",
          "name": "",
          "type": "address"
        }
      ],
      "stateMutability": "view",
      "type": "function"
    },
    {
      "inputs": [],
      "name": "acceptOwnership",
      "outputs": [],
      "stateMutability": "nonpayable",
      "type": "function"
    },
    {
      "inputs": [],
      "name": "accessControlManager",
      "outputs": [
        {
          "internalType": "contract IAccessControlManagerV8",
          "name": "",
          "type": "address"
        }
      ],
      "stateMutability": "view",
      "type": "function"
    },
    {
      "inputs": [
        {
          "internalType": "address",
          "name": "asset",
          "type": "address"
        }
      ],
      "name": "getPrice",
      "outputs": [
        {
          "internalType": "uint256",
          "name": "",
          "type": "uint256"
        }
      ],
      "stateMutability": "view",
      "type": "function"
    },
    {
      "inputs": [],
      "name": "owner",
      "outputs": [
        {
          "internalType": "address",
          "name": "",
          "type": "address"
        }
      ],
      "stateMutability": "view",
      "type": "function"
    },
    {
      "inputs": [],
      "name": "pendingOwner",
      "outputs": [
        {
          "internalType": "address",
          "name": "",
          "type": "address"
        }
      ],
      "stateMutability": "view",
      "type": "function"
    },
    {
      "inputs": [],
      "name": "renounceOwnership",
      "outputs": [],
      "stateMutability": "nonpayable",
      "type": "function"
    },
    {
      "inputs": [
        {
          "internalType": "address",
          "name": "accessControlManager_",
          "type": "address"
        }
      ],
      "name": "setAccessControlManager",
      "outputs": [],
      "stateMutability": "nonpayable",
      "type": "function"
    },
    {
      "inputs": [
        {
          "components": [
            {
              "internalType": "address",
              "name": "asset",
              "type": "address"
            },
            {
              "internalType": "address",
              "name": "market",
              "type": "address"
            },
            {
              "internalType": "uint32",
              "name": "twapDuration",
              "type": "uint32"
            },
            {
              "internalType": "address",
              "name": "yieldToken",
              "type": "address"
            }
          ],
          "internalType": "struct PendleOracle.TokenConfig",
          "name": "tokenConfig",
          "type": "tuple"
        }
      ],
      "name": "setTokenConfig",
      "outputs": [],
      "stateMutability": "nonpayable",
      "type": "function"
    },
    {
      "inputs": [
        {
          "components": [
            {
              "internalType": "address",
              "name": "asset",
              "type": "address"
            },
            {
              "internalType": "address",
              "name": "market",
              "type": "address"
            },
            {
              "internalType": "uint32",
              "name": "twapDuration",
              "type": "uint32"
            },
            {
              "internalType": "address",
              "name": "yieldToken",
              "type": "address"
            }
          ],
          "internalType": "struct PendleOracle.TokenConfig[]",
          "name": "tokenConfigs_",
          "type": "tuple[]"
        }
      ],
      "name": "setTokenConfigs",
      "outputs": [],
      "stateMutability": "nonpayable",
      "type": "function"
    },
    {
      "inputs": [
        {
          "internalType": "address",
          "name": "",
          "type": "address"
        }
      ],
      "name": "tokenConfigs",
      "outputs": [
        {
          "internalType": "address",
          "name": "asset",
          "type": "address"
        },
        {
          "internalType": "address",
          "name": "market",
          "type": "address"
        },
        {
          "internalType": "uint32",
          "name": "twapDuration",
          "type": "uint32"
        },
        {
          "internalType": "address",
          "name": "yieldToken",
          "type": "address"
        }
      ],
      "stateMutability": "view",
      "type": "function"
    },
    {
      "inputs": [
        {
          "internalType": "address",
          "name": "newOwner",
          "type": "address"
        }
      ],
      "name": "transferOwnership",
      "outputs": [],
      "stateMutability": "nonpayable",
      "type": "function"
    }
  ],
  "transactionHash": "0x7a2c4030eaf2089b1d8b7104300b89ae346dd235fbe64c4d3b2011b251f75629",
  "args": [
    "0xbcbda48712A075fa7B50b4B6f8C42D40D4505F8B",
    "0x28A59851C1CB12351D7c6aEf98FFE2871d7cF898",
    "0x949AFf0Ce79CF1b9c7E39cf0Fb5Bdb8deD1cE542"
  ],
  "numDeployments": 5,
  "solcInputHash": "c32d0c482353c6cf2683f226863bb05c",
  "bytecode": "0x60c060405234801561001057600080fd5b506040516113fb3803806113fb83398101604081905261002f916101e3565b6100383361006b565b61004183610087565b61004a82610150565b61005381610150565b6001600160a01b039182166080521660a05250610226565b600180546001600160a01b031916905561008481610177565b50565b6001600160a01b0381166100ef5760405162461bcd60e51b815260206004820152602560248201527f696e76616c696420616365737320636f6e74726f6c206d616e61676572206164604482015264647265737360d81b606482015260840160405180910390fd5b600280546001600160a01b038381166001600160a01b031983168117909355604080519190921680825260208201939093527f66fd58e82f7b31a2a5c30e0888f3093efe4e111b00cd2b0c31fe014601293aa0910160405180910390a15050565b6001600160a01b038116610084576040516342bcdf7f60e11b815260040160405180910390fd5b600080546001600160a01b038381166001600160a01b0319831681178455604051919092169283917f8be0079c531659141344cd1fd0a4f28419497f9722a3daafe3b4186f6b6457e09190a35050565b80516001600160a01b03811681146101de57600080fd5b919050565b6000806000606084860312156101f857600080fd5b610201846101c7565b925061020f602085016101c7565b915061021d604085016101c7565b90509250925092565b60805160a05161119b6102606000396000818161021f01526104010152600081816101cf0152818161036301526105db015261119b6000f3fe608060405234801561001057600080fd5b50600436106100cf5760003560e01c806379ba50971161008c578063a4edcd4c11610066578063a4edcd4c1461021a578063b4a0bdf314610241578063e30c397814610252578063f2fde38b1461026357600080fd5b806379ba5097146101c2578063809d7b31146101ca5780638da5cb5b1461020957600080fd5b80630e32cb86146100d45780631b69dc5f146100e957806341976e091461017357806350b8199a14610194578063715018a6146101a757806374c20666146101af575b600080fd5b6100e76100e2366004610d98565b610276565b005b6101356100f7366004610d98565b6034602052600090815260409020805460018201546002909201546001600160a01b039182169282811692600160a01b90910463ffffffff16911684565b604080516001600160a01b039586168152938516602085015263ffffffff909216918301919091529190911660608201526080015b60405180910390f35b610186610181366004610d98565b61028a565b60405190815260200161016a565b6100e76101a2366004610e95565b610488565b6100e76109c4565b6100e76101bd366004610eb1565b6109d8565b6100e7610a59565b6101f17f000000000000000000000000000000000000000000000000000000000000000081565b6040516001600160a01b03909116815260200161016a565b6000546001600160a01b03166101f1565b6101f17f000000000000000000000000000000000000000000000000000000000000000081565b6002546001600160a01b03166101f1565b6001546001600160a01b03166101f1565b6100e7610271366004610d98565b610ad0565b61027e610b41565b61028781610b9b565b50565b6001600160a01b038181166000818152603460209081526040808320815160808101835281548716808252600183015480891695830195909552600160a01b90940463ffffffff16928101929092526002015490941660608501529092911461032a5760405162461bcd60e51b815260206004820152600d60248201526c3ab735b737bbb7103a37b5b2b760991b60448201526064015b60405180910390fd5b6020810151604080830151905163a31426d160e01b81526001600160a01b03928316600482015263ffffffff90911660248201526000917f0000000000000000000000000000000000000000000000000000000000000000169063a31426d190604401602060405180830381865afa1580156103aa573d6000803e3d6000fd5b505050506040513d601f19601f820116820180604052508101906103ce9190610f64565b60608301516040516341976e0960e01b81526001600160a01b039182166004820152919250670de0b6b3a76400009183917f000000000000000000000000000000000000000000000000000000000000000016906341976e0990602401602060405180830381865afa158015610448573d6000803e3d6000fd5b505050506040513d601f19601f8201168201806040525081019061046c9190610f64565b6104769190610f7d565b6104809190610fa8565b949350505050565b80516001600160a01b0381166104d85760405162461bcd60e51b815260206004820152601560248201527463616e2774206265207a65726f206164647265737360581b6044820152606401610321565b60208201516001600160a01b03811661052b5760405162461bcd60e51b815260206004820152601560248201527463616e2774206265207a65726f206164647265737360581b6044820152606401610321565b6105696040518060400160405280601b81526020017f736574546f6b656e436f6e66696728546f6b656e436f6e666967290000000000815250610c60565b61057c836040015163ffffffff16610cfe565b826040015163ffffffff166000036105d65760405162461bcd60e51b815260206004820152601b60248201527f74776170206475726174696f6e2063616e2774206265207a65726f00000000006044820152606401610321565b6000807f00000000000000000000000000000000000000000000000000000000000000006001600160a01b031663873e9600866020015187604001516040518363ffffffff1660e01b81526004016106499291906001600160a01b0392909216825263ffffffff16602082015260400190565b606060405180830381865afa158015610666573d6000803e3d6000fd5b505050506040513d601f19601f8201168201806040525081019061068a9190610fdf565b92505091508180610699575080155b156106b757604051637616640160e01b815260040160405180910390fd5b60008086602001516001600160a01b0316632c8ce6bc6040518163ffffffff1660e01b8152600401606060405180830381865afa1580156106fc573d6000803e3d6000fd5b505050506040513d601f19601f82011682018060405250810190610720919061102b565b5091509150806001600160a01b031687600001516001600160a01b0316146107785760405162461bcd60e51b815260206004820152600b60248201526a0e0e840dad2e6dac2e8c6d60ab1b6044820152606401610321565b816001600160a01b0316816001600160a01b031663afd27bf56040518163ffffffff1660e01b8152600401602060405180830381865afa1580156107c0573d6000803e3d6000fd5b505050506040513d601f19601f820116820180604052508101906107e49190611078565b6001600160a01b0316146108285760405162461bcd60e51b815260206004820152600b60248201526a0e6f240dad2e6dac2e8c6d60ab1b6044820152606401610321565b86606001516001600160a01b0316826001600160a01b03166376d5de856040518163ffffffff1660e01b8152600401602060405180830381865afa158015610874573d6000803e3d6000fd5b505050506040513d601f19601f820116820180604052508101906108989190611078565b6001600160a01b0316146108e45760405162461bcd60e51b81526020600482015260136024820152720f2d2cad8c8a8ded6cadc40dad2e6dac2e8c6d606b1b6044820152606401610321565b86516001600160a01b039081166000908152603460209081526040918290208a5181549085166001600160a01b031991821681178355928c0151600183018054868f015163ffffffff8116600160a01b026001600160c01b0319909216848a16179190911790915560608e015160029094018054949097169390921692909217909455915190927f3476212a6434181e2196a8ec152bd7a5cf549670c30c31a60b74a1c3429700a4926109b3929091906001600160a01b0392909216825263ffffffff16602082015260400190565b60405180910390a250505050505050565b6109cc610b41565b6109d66000610d1f565b565b8051600003610a1d5760405162461bcd60e51b815260206004820152601160248201527006c656e6774682063616e2774206265203607c1b6044820152606401610321565b805160005b81811015610a5457610a4c838281518110610a3f57610a3f611095565b6020026020010151610488565b600101610a22565b505050565b60015433906001600160a01b03168114610ac75760405162461bcd60e51b815260206004820152602960248201527f4f776e61626c6532537465703a2063616c6c6572206973206e6f7420746865206044820152683732bb9037bbb732b960b91b6064820152608401610321565b61028781610d1f565b610ad8610b41565b600180546001600160a01b0383166001600160a01b03199091168117909155610b096000546001600160a01b031690565b6001600160a01b03167f38d16b8cac22d99fc7c124b9cd0de2d3fa1faef420bfe791d8c362d765e2270060405160405180910390a350565b6000546001600160a01b031633146109d65760405162461bcd60e51b815260206004820181905260248201527f4f776e61626c653a2063616c6c6572206973206e6f7420746865206f776e65726044820152606401610321565b6001600160a01b038116610bff5760405162461bcd60e51b815260206004820152602560248201527f696e76616c696420616365737320636f6e74726f6c206d616e61676572206164604482015264647265737360d81b6064820152608401610321565b600280546001600160a01b038381166001600160a01b031983168117909355604080519190921680825260208201939093527f66fd58e82f7b31a2a5c30e0888f3093efe4e111b00cd2b0c31fe014601293aa0910160405180910390a15050565b6002546040516318c5e8ab60e01b81526000916001600160a01b0316906318c5e8ab90610c9390339086906004016110f1565b602060405180830381865afa158015610cb0573d6000803e3d6000fd5b505050506040513d601f19601f82011682018060405250810190610cd49190611115565b905080610cfa57333083604051634a3fa29360e01b815260040161032193929190611130565b5050565b806000036102875760405163273e150360e21b815260040160405180910390fd5b600180546001600160a01b031916905561028781600080546001600160a01b038381166001600160a01b0319831681178455604051919092169283917f8be0079c531659141344cd1fd0a4f28419497f9722a3daafe3b4186f6b6457e09190a35050565b6001600160a01b038116811461028757600080fd5b600060208284031215610daa57600080fd5b8135610db581610d83565b9392505050565b634e487b7160e01b600052604160045260246000fd5b604051601f8201601f1916810167ffffffffffffffff81118282101715610dfb57610dfb610dbc565b604052919050565b600060808284031215610e1557600080fd5b6040516080810181811067ffffffffffffffff82111715610e3857610e38610dbc565b6040529050808235610e4981610d83565b81526020830135610e5981610d83565b6020820152604083013563ffffffff81168114610e7557600080fd5b60408201526060830135610e8881610d83565b6060919091015292915050565b600060808284031215610ea757600080fd5b610db58383610e03565b60006020808385031215610ec457600080fd5b823567ffffffffffffffff80821115610edc57600080fd5b818501915085601f830112610ef057600080fd5b813581811115610f0257610f02610dbc565b610f10848260051b01610dd2565b818152848101925060079190911b830184019087821115610f3057600080fd5b928401925b81841015610f5957610f478885610e03565b83528483019250608084019350610f35565b979650505050505050565b600060208284031215610f7657600080fd5b5051919050565b8082028115828204841417610fa257634e487b7160e01b600052601160045260246000fd5b92915050565b600082610fc557634e487b7160e01b600052601260045260246000fd5b500490565b80518015158114610fda57600080fd5b919050565b600080600060608486031215610ff457600080fd5b610ffd84610fca565b9250602084015161ffff8116811461101457600080fd5b915061102260408501610fca565b90509250925092565b60008060006060848603121561104057600080fd5b835161104b81610d83565b602085015190935061105c81610d83565b604085015190925061106d81610d83565b809150509250925092565b60006020828403121561108a57600080fd5b8151610db581610d83565b634e487b7160e01b600052603260045260246000fd5b6000815180845260005b818110156110d1576020818501810151868301820152016110b5565b506000602082860101526020601f19601f83011685010191505092915050565b6001600160a01b0383168152604060208201819052600090610480908301846110ab565b60006020828403121561112757600080fd5b610db582610fca565b6001600160a01b0384811682528316602082015260606040820181905260009061115c908301846110ab565b9594505050505056fea2646970667358221220e2b28118725a05fa3f0e0f7b90b2d7f28ddf41ac4ede9838067f1c8fc89475b864736f6c63430008190033",
  "devdoc": {
    "author": "Venus",
    "kind": "dev",
    "methods": {
      "acceptOwnership()": {
        "details": "The new owner accepts the ownership transfer."
      },
      "constructor": {
        "params": {
          "accessControlManager_": "Address of the access control manager contract"
        }
      },
      "getPrice(address)": {
        "params": {
          "asset": "Address of the asset"
        },
        "returns": {
          "_0": "Price in USD from Chainlink or a manually set price for the asset"
        }
      },
      "owner()": {
        "details": "Returns the address of the current owner."
      },
      "pendingOwner()": {
        "details": "Returns the address of the pending owner."
      },
      "renounceOwnership()": {
        "details": "Leaves the contract without owner. It will not be possible to call `onlyOwner` functions. Can only be called by the current owner. NOTE: Renouncing ownership will leave the contract without an owner, thereby disabling any functionality that is only available to the owner."
      },
      "setAccessControlManager(address)": {
        "custom:access": "Only Governance",
        "custom:event": "Emits NewAccessControlManager event",
        "details": "Admin function to set address of AccessControlManager",
        "params": {
          "accessControlManager_": "The new address of the AccessControlManager"
        }
      },
      "setTokenConfig((address,address,uint32,address))": {
        "custom:access": "Only Governance",
        "custom:error": "NotNullAddress error is thrown if asset address is nullNotNullAddress error is thrown if token feed address is nullRange error is thrown if twap duration of token is not greater than zero",
        "custom:event": "Emits TokenConfigAdded event on succesfully setting of the token config",
        "params": {
          "tokenConfig": "Token config struct"
        }
      },
      "setTokenConfigs((address,address,uint32,address)[])": {
        "custom:access": "Only Governance",
        "custom:error": "Zero length error thrown, if length of the array in parameter is 0",
        "params": {
          "tokenConfigs_": "config array"
        }
      },
      "transferOwnership(address)": {
        "details": "Starts the ownership transfer of the contract to a new account. Replaces the pending transfer if there is one. Can only be called by the current owner."
      }
    },
    "stateVariables": {
      "PT_ORACLE": {
        "custom:oz-upgrades-unsafe-allow": "state-variable-immutable"
      }
    },
    "title": "PendleOracle",
    "version": 1
  },
  "userdoc": {
    "errors": {
      "InvalidDuration()": [
        {
          "notice": "Thrown if the duration is invalid"
        }
      ],
      "Unauthorized(address,address,string)": [
        {
          "notice": "Thrown when the action is prohibited by AccessControlManager"
        }
      ],
      "ZeroAddressNotAllowed()": [
        {
          "notice": "Thrown if the supplied address is a zero address where it is not allowed"
        }
      ],
      "ZeroValueNotAllowed()": [
        {
          "notice": "Thrown if the supplied value is 0 where it is not allowed"
        }
      ]
    },
    "events": {
      "NewAccessControlManager(address,address)": {
        "notice": "Emitted when access control manager contract address is changed"
      },
      "TokenConfigAdded(address,address,uint32)": {
        "notice": "Emit when a token config is added"
      }
    },
    "kind": "user",
    "methods": {
      "PT_ORACLE()": {
        "notice": "Address of the PT oracle"
      },
      "accessControlManager()": {
        "notice": "Returns the address of the access control manager contract"
      },
      "constructor": {
        "notice": "Initializes the owner of the contract"
      },
      "getPrice(address)": {
        "notice": "Gets the price of a asset from the chainlink oracle"
      },
      "setAccessControlManager(address)": {
        "notice": "Sets the address of AccessControlManager"
      },
      "setTokenConfig((address,address,uint32,address))": {
        "notice": "Add single token config. asset & feed cannot be null addresses and maxStalePeriod must be positive"
      },
      "setTokenConfigs((address,address,uint32,address)[])": {
        "notice": "Add multiple token configs at the same time"
      },
      "tokenConfigs(address)": {
        "notice": "Token config by assets"
      }
    },
    "notice": "This oracle fetches the price of a pendle token",
    "version": 1
  },
  "storageLayout": {
    "storage": [
      {
        "astId": 80,
        "contract": "contracts/oracles/PendleOracle.sol:PendleOracle",
        "label": "_owner",
        "offset": 0,
        "slot": "0",
        "type": "t_address"
      },
      {
        "astId": 193,
        "contract": "contracts/oracles/PendleOracle.sol:PendleOracle",
        "label": "_pendingOwner",
        "offset": 0,
        "slot": "1",
        "type": "t_address"
      },
      {
        "astId": 412,
        "contract": "contracts/oracles/PendleOracle.sol:PendleOracle",
        "label": "_accessControlManager",
        "offset": 0,
        "slot": "2",
        "type": "t_contract(IAccessControlManagerV8)570"
      },
      {
        "astId": 417,
        "contract": "contracts/oracles/PendleOracle.sol:PendleOracle",
        "label": "__gap",
        "offset": 0,
        "slot": "3",
        "type": "t_array(t_uint256)49_storage"
      },
      {
        "astId": 1263,
        "contract": "contracts/oracles/PendleOracle.sol:PendleOracle",
        "label": "tokenConfigs",
        "offset": 0,
        "slot": "52",
        "type": "t_mapping(t_address,t_struct(TokenConfig)1250_storage)"
      }
    ],
    "types": {
      "t_address": {
        "encoding": "inplace",
        "label": "address",
        "numberOfBytes": "20"
      },
      "t_array(t_uint256)49_storage": {
        "base": "t_uint256",
        "encoding": "inplace",
        "label": "uint256[49]",
        "numberOfBytes": "1568"
      },
      "t_contract(IAccessControlManagerV8)570": {
        "encoding": "inplace",
        "label": "contract IAccessControlManagerV8",
        "numberOfBytes": "20"
      },
      "t_mapping(t_address,t_struct(TokenConfig)1250_storage)": {
        "encoding": "mapping",
        "key": "t_address",
        "label": "mapping(address => struct PendleOracle.TokenConfig)",
        "numberOfBytes": "32",
        "value": "t_struct(TokenConfig)1250_storage"
      },
      "t_struct(TokenConfig)1250_storage": {
        "encoding": "inplace",
        "label": "struct PendleOracle.TokenConfig",
        "members": [
          {
            "astId": 1240,
            "contract": "contracts/oracles/PendleOracle.sol:PendleOracle",
            "label": "asset",
            "offset": 0,
            "slot": "0",
            "type": "t_address"
          },
          {
            "astId": 1243,
            "contract": "contracts/oracles/PendleOracle.sol:PendleOracle",
            "label": "market",
            "offset": 0,
            "slot": "1",
            "type": "t_address"
          },
          {
            "astId": 1246,
            "contract": "contracts/oracles/PendleOracle.sol:PendleOracle",
            "label": "twapDuration",
            "offset": 20,
            "slot": "1",
            "type": "t_uint32"
          },
          {
            "astId": 1249,
            "contract": "contracts/oracles/PendleOracle.sol:PendleOracle",
            "label": "yieldToken",
            "offset": 0,
            "slot": "2",
            "type": "t_address"
          }
        ],
        "numberOfBytes": "96"
      },
      "t_uint256": {
        "encoding": "inplace",
        "label": "uint256",
        "numberOfBytes": "32"
      },
      "t_uint32": {
        "encoding": "inplace",
        "label": "uint32",
        "numberOfBytes": "4"
      }
    }
  }
}