{
  "address": "0x9e3ca84C236825DB7c6997F8dc094228BCAAdd9E",
  "abi": [
    {
      "inputs": [
        {
          "internalType": "address",
          "name": "nativeAssetAddress",
          "type": "address"
        },
        {
          "internalType": "contract BoundValidatorInterface",
          "name": "_boundValidator",
          "type": "address"
        }
      ],
      "stateMutability": "nonpayable",
      "type": "constructor"
    },
    {
      "inputs": [
        {
          "internalType": "address",
          "name": "sender",
          "type": "address"
        },
        {
          "internalType": "address",
          "name": "calledContract",
          "type": "address"
        },
        {
          "internalType": "string",
          "name": "methodSignature",
          "type": "string"
        }
      ],
      "name": "Unauthorized",
      "type": "error"
    },
    {
      "anonymous": false,
      "inputs": [
        {
          "indexed": false,
          "internalType": "uint8",
          "name": "version",
          "type": "uint8"
        }
      ],
      "name": "Initialized",
      "type": "event"
    },
    {
      "anonymous": false,
      "inputs": [
        {
          "indexed": false,
          "internalType": "address",
          "name": "oldAccessControlManager",
          "type": "address"
        },
        {
          "indexed": false,
          "internalType": "address",
          "name": "newAccessControlManager",
          "type": "address"
        }
      ],
      "name": "NewAccessControlManager",
      "type": "event"
    },
    {
      "anonymous": false,
      "inputs": [
        {
          "indexed": true,
          "internalType": "address",
          "name": "asset",
          "type": "address"
        },
        {
          "indexed": true,
          "internalType": "uint256",
          "name": "role",
          "type": "uint256"
        },
        {
          "indexed": true,
          "internalType": "bool",
          "name": "enable",
          "type": "bool"
        }
      ],
      "name": "OracleEnabled",
      "type": "event"
    },
    {
      "anonymous": false,
      "inputs": [
        {
          "indexed": true,
          "internalType": "address",
          "name": "asset",
          "type": "address"
        },
        {
          "indexed": true,
          "internalType": "address",
          "name": "oracle",
          "type": "address"
        },
        {
          "indexed": true,
          "internalType": "uint256",
          "name": "role",
          "type": "uint256"
        }
      ],
      "name": "OracleSet",
      "type": "event"
    },
    {
      "anonymous": false,
      "inputs": [
        {
          "indexed": true,
          "internalType": "address",
          "name": "previousOwner",
          "type": "address"
        },
        {
          "indexed": true,
          "internalType": "address",
          "name": "newOwner",
          "type": "address"
        }
      ],
      "name": "OwnershipTransferStarted",
      "type": "event"
    },
    {
      "anonymous": false,
      "inputs": [
        {
          "indexed": true,
          "internalType": "address",
          "name": "previousOwner",
          "type": "address"
        },
        {
          "indexed": true,
          "internalType": "address",
          "name": "newOwner",
          "type": "address"
        }
      ],
      "name": "OwnershipTransferred",
      "type": "event"
    },
    {
      "anonymous": false,
      "inputs": [
        {
          "indexed": false,
          "internalType": "address",
          "name": "account",
          "type": "address"
        }
      ],
      "name": "Paused",
      "type": "event"
    },
    {
      "anonymous": false,
      "inputs": [
        {
          "indexed": true,
          "internalType": "address",
          "name": "asset",
          "type": "address"
        },
        {
          "indexed": true,
          "internalType": "address",
          "name": "mainOracle",
          "type": "address"
        },
        {
          "indexed": true,
          "internalType": "address",
          "name": "pivotOracle",
          "type": "address"
        },
        {
          "indexed": false,
          "internalType": "address",
          "name": "fallbackOracle",
          "type": "address"
        }
      ],
      "name": "TokenConfigAdded",
      "type": "event"
    },
    {
      "anonymous": false,
      "inputs": [
        {
          "indexed": false,
          "internalType": "address",
          "name": "account",
          "type": "address"
        }
      ],
      "name": "Unpaused",
      "type": "event"
    },
    {
      "inputs": [],
      "name": "INVALID_PRICE",
      "outputs": [
        {
          "internalType": "uint256",
          "name": "",
          "type": "uint256"
        }
      ],
      "stateMutability": "view",
      "type": "function"
    },
    {
      "inputs": [],
      "name": "acceptOwnership",
      "outputs": [],
      "stateMutability": "nonpayable",
      "type": "function"
    },
    {
      "inputs": [],
      "name": "accessControlManager",
      "outputs": [
        {
          "internalType": "contract IAccessControlManagerV8",
          "name": "",
          "type": "address"
        }
      ],
      "stateMutability": "view",
      "type": "function"
    },
    {
      "inputs": [],
      "name": "boundValidator",
      "outputs": [
        {
          "internalType": "contract BoundValidatorInterface",
          "name": "",
          "type": "address"
        }
      ],
      "stateMutability": "view",
      "type": "function"
    },
    {
      "inputs": [
        {
          "internalType": "address",
          "name": "asset",
          "type": "address"
        },
        {
          "internalType": "enum ResilientOracle.OracleRole",
          "name": "role",
          "type": "uint8"
        },
        {
          "internalType": "bool",
          "name": "enable",
          "type": "bool"
        }
      ],
      "name": "enableOracle",
      "outputs": [],
      "stateMutability": "nonpayable",
      "type": "function"
    },
    {
      "inputs": [
        {
          "internalType": "address",
          "name": "asset",
          "type": "address"
        },
        {
          "internalType": "enum ResilientOracle.OracleRole",
          "name": "role",
          "type": "uint8"
        }
      ],
      "name": "getOracle",
      "outputs": [
        {
          "internalType": "address",
          "name": "oracle",
          "type": "address"
        },
        {
          "internalType": "bool",
          "name": "enabled",
          "type": "bool"
        }
      ],
      "stateMutability": "view",
      "type": "function"
    },
    {
      "inputs": [
        {
          "internalType": "address",
          "name": "asset",
          "type": "address"
        }
      ],
      "name": "getPrice",
      "outputs": [
        {
          "internalType": "uint256",
          "name": "",
          "type": "uint256"
        }
      ],
      "stateMutability": "view",
      "type": "function"
    },
    {
      "inputs": [
        {
          "internalType": "address",
          "name": "asset",
          "type": "address"
        }
      ],
      "name": "getTokenConfig",
      "outputs": [
        {
          "components": [
            {
              "internalType": "address",
              "name": "asset",
              "type": "address"
            },
            {
              "internalType": "address[3]",
              "name": "oracles",
              "type": "address[3]"
            },
            {
              "internalType": "bool[3]",
              "name": "enableFlagsForOracles",
              "type": "bool[3]"
            }
          ],
          "internalType": "struct ResilientOracle.TokenConfig",
          "name": "",
          "type": "tuple"
        }
      ],
      "stateMutability": "view",
      "type": "function"
    },
    {
      "inputs": [
        {
          "internalType": "address",
          "name": "vToken",
          "type": "address"
        }
      ],
      "name": "getUnderlyingPrice",
      "outputs": [
        {
          "internalType": "uint256",
          "name": "",
          "type": "uint256"
        }
      ],
      "stateMutability": "view",
      "type": "function"
    },
    {
      "inputs": [
        {
          "internalType": "address[]",
          "name": "cTokens",
          "type": "address[]"
        }
      ],
      "name": "getUnderlyingPrices",
      "outputs": [
        {
          "internalType": "uint256[]",
          "name": "",
          "type": "uint256[]"
        }
      ],
      "stateMutability": "view",
      "type": "function"
    },
    {
      "inputs": [
        {
          "internalType": "address",
          "name": "accessControlManager_",
          "type": "address"
        }
      ],
      "name": "initialize",
      "outputs": [],
      "stateMutability": "nonpayable",
      "type": "function"
    },
    {
      "inputs": [],
      "name": "nativeAsset",
      "outputs": [
        {
          "internalType": "address",
          "name": "",
          "type": "address"
        }
      ],
      "stateMutability": "view",
      "type": "function"
    },
    {
      "inputs": [],
      "name": "nativeMarket",
      "outputs": [
        {
          "internalType": "address",
          "name": "",
          "type": "address"
        }
      ],
      "stateMutability": "view",
      "type": "function"
    },
    {
      "inputs": [],
      "name": "owner",
      "outputs": [
        {
          "internalType": "address",
          "name": "",
          "type": "address"
        }
      ],
      "stateMutability": "view",
      "type": "function"
    },
    {
      "inputs": [],
      "name": "pause",
      "outputs": [],
      "stateMutability": "nonpayable",
      "type": "function"
    },
    {
      "inputs": [],
      "name": "paused",
      "outputs": [
        {
          "internalType": "bool",
          "name": "",
          "type": "bool"
        }
      ],
      "stateMutability": "view",
      "type": "function"
    },
    {
      "inputs": [],
      "name": "pendingOwner",
      "outputs": [
        {
          "internalType": "address",
          "name": "",
          "type": "address"
        }
      ],
      "stateMutability": "view",
      "type": "function"
    },
    {
      "inputs": [],
      "name": "renounceOwnership",
      "outputs": [],
      "stateMutability": "nonpayable",
      "type": "function"
    },
    {
      "inputs": [
        {
          "internalType": "address",
          "name": "accessControlManager_",
          "type": "address"
        }
      ],
      "name": "setAccessControlManager",
      "outputs": [],
      "stateMutability": "nonpayable",
      "type": "function"
    },
    {
      "inputs": [
        {
          "internalType": "address",
          "name": "asset",
          "type": "address"
        },
        {
          "internalType": "address",
          "name": "oracle",
          "type": "address"
        },
        {
          "internalType": "enum ResilientOracle.OracleRole",
          "name": "role",
          "type": "uint8"
        }
      ],
      "name": "setOracle",
      "outputs": [],
      "stateMutability": "nonpayable",
      "type": "function"
    },
    {
      "inputs": [
        {
          "components": [
            {
              "internalType": "address",
              "name": "asset",
              "type": "address"
            },
            {
              "internalType": "address[3]",
              "name": "oracles",
              "type": "address[3]"
            },
            {
              "internalType": "bool[3]",
              "name": "enableFlagsForOracles",
              "type": "bool[3]"
            }
          ],
          "internalType": "struct ResilientOracle.TokenConfig",
          "name": "tokenConfig",
          "type": "tuple"
        }
      ],
      "name": "setTokenConfig",
      "outputs": [],
      "stateMutability": "nonpayable",
      "type": "function"
    },
    {
      "inputs": [
        {
          "components": [
            {
              "internalType": "address",
              "name": "asset",
              "type": "address"
            },
            {
              "internalType": "address[3]",
              "name": "oracles",
              "type": "address[3]"
            },
            {
              "internalType": "bool[3]",
              "name": "enableFlagsForOracles",
              "type": "bool[3]"
            }
          ],
          "internalType": "struct ResilientOracle.TokenConfig[]",
          "name": "tokenConfigs_",
          "type": "tuple[]"
        }
      ],
      "name": "setTokenConfigs",
      "outputs": [],
      "stateMutability": "nonpayable",
      "type": "function"
    },
    {
      "inputs": [
        {
          "internalType": "address",
          "name": "newOwner",
          "type": "address"
        }
      ],
      "name": "transferOwnership",
      "outputs": [],
      "stateMutability": "nonpayable",
      "type": "function"
    },
    {
      "inputs": [],
      "name": "unpause",
      "outputs": [],
      "stateMutability": "nonpayable",
      "type": "function"
    },
    {
      "inputs": [
        {
          "internalType": "address",
          "name": "asset",
          "type": "address"
        }
      ],
      "name": "updateAssetPrice",
      "outputs": [],
      "stateMutability": "nonpayable",
      "type": "function"
    },
    {
      "inputs": [
        {
          "internalType": "address",
          "name": "vToken",
          "type": "address"
        }
      ],
      "name": "updatePrice",
      "outputs": [],
      "stateMutability": "nonpayable",
      "type": "function"
    },
    {
      "inputs": [],
      "name": "vai",
      "outputs": [
        {
          "internalType": "address",
          "name": "",
          "type": "address"
        }
      ],
      "stateMutability": "view",
      "type": "function"
    }
  ],
  "transactionHash": "0x8b5e294c104e310f1472dfe6b8f86c3083d71f45abf735f932757a88f4c280ba",
  "args": [
    "0x7b79995e5f793A07Bc00c21412e50Ecae098E7f9",
    "0xbE531fF6891280deA898f8C94449492BDCF7DAe3"
  ],
  "numDeployments": 4,
  "solcInputHash": "4ab387c4735801ab12044ed0b6ca760c",
  "bytecode": "0x61010060405234801561001157600080fd5b506040516124c93803806124c98339810160408190526100309161018f565b806001600160a01b03811661008c5760405162461bcd60e51b815260206004820152601560248201527f63616e2774206265207a65726f2061646472657373000000000000000000000060448201526064015b60405180910390fd5b600060808190526001600160a01b0384811660c05260a091909152821660e0526100b46100bc565b5050506101c9565b600054610100900460ff16156101245760405162461bcd60e51b815260206004820152602760248201527f496e697469616c697a61626c653a20636f6e747261637420697320696e697469604482015266616c697a696e6760c81b6064820152608401610083565b60005460ff90811614610175576000805460ff191660ff9081179091556040519081527f7f26b83ff96e1f2b6a682f133852f6798a09c465da95921460cefb38474024989060200160405180910390a15b565b6001600160a01b038116811461018c57600080fd5b50565b600080604083850312156101a257600080fd5b82516101ad81610177565b60208401519092506101be81610177565b809150509250929050565b60805160a05160c05160e0516122ab61021e600039600081816101ee015281816113a00152818161178301526118f30152600081816102b4015261154d0152600061039f015260006102eb01526122ab6000f3fe608060405234801561001057600080fd5b50600436106101a95760003560e01c80638456cb59116100f9578063b62cad6911610097578063cb67e3b111610071578063cb67e3b1146103d4578063e30c3978146103f4578063f2fde38b14610405578063fc57d4df1461041857600080fd5b8063b62cad6914610387578063b62e4c921461039a578063c4d66de8146103c157600080fd5b80638da5cb5b116100d35780638da5cb5b1461033f57806396e85ced14610350578063a6b1344a14610363578063b4a0bdf31461037657600080fd5b80638456cb59146102de5780638a2f7f6d146102e65780638b855da41461030d57600080fd5b806348a1371b116101665780635c975abb116101405780635c975abb14610291578063715018a6146102a757806374d32ad4146102af57806379ba5097146102d657600080fd5b806348a1371b146102565780634b932b8f146102765780634bf39cba1461028957600080fd5b80630e32cb86146101ae5780632cfa3871146101c3578063333a21b0146101d657806333d33494146101e95780633f4ba83a1461022d57806341976e0914610235575b600080fd5b6101c16101bc366004611c30565b61042b565b005b6101c16101d1366004611de1565b61043f565b6101c16101e4366004611e87565b6104c5565b6102107f000000000000000000000000000000000000000000000000000000000000000081565b6040516001600160a01b0390911681526020015b60405180910390f35b6101c1610617565b610248610243366004611c30565b61064b565b604051908152602001610224565b610269610264366004611ea3565b6106b5565b6040516102249190611f3d565b6101c1610284366004611f95565b61075b565b610248600081565b60335460ff166040519015158152602001610224565b6101c16108d1565b6102107f000000000000000000000000000000000000000000000000000000000000000081565b6101c16108e3565b6101c161095a565b6102107f000000000000000000000000000000000000000000000000000000000000000081565b61032061031b366004611fde565b61098a565b604080516001600160a01b039093168352901515602083015201610224565b6065546001600160a01b0316610210565b6101c161035e366004611c30565b610a2c565b6101c1610371366004612013565b610ad7565b60c9546001600160a01b0316610210565b6101c1610395366004611c30565b610cd9565b6102107f000000000000000000000000000000000000000000000000000000000000000081565b6101c16103cf366004611c30565b610d75565b6103e76103e2366004611c30565b610e91565b604051610224919061205a565b6097546001600160a01b0316610210565b6101c1610413366004611c30565b610f66565b610248610426366004611c30565b610fd7565b61043361104f565b61043c816110a9565b50565b80516000036104895760405162461bcd60e51b815260206004820152601160248201527006c656e6774682063616e2774206265203607c1b60448201526064015b60405180910390fd5b805160005b818110156104c0576104b88382815181106104ab576104ab6120d5565b60200260200101516104c5565b60010161048e565b505050565b80516001600160a01b0381166104ed5760405162461bcd60e51b8152600401610480906120eb565b6020820151516001600160a01b0381166105195760405162461bcd60e51b8152600401610480906120eb565b6105576040518060400160405280601b81526020017f736574546f6b656e436f6e66696728546f6b656e436f6e666967290000000000815250611167565b82516001600160a01b03908116600090815260fb60209081526040909120855181546001600160a01b03191693169290921782558401518491906105a19060018301906003611ace565b5060408201516105b79060048301906003611b26565b505050602083810151808201518151865160409384015193516001600160a01b039485168152928416949184169316917fa51ad01e2270c314a7b78f0c60fe66c723f2d06c121d63fcdce776e654878fc1910160405180910390a4505050565b61064160405180604001604052806009815260200168756e7061757365282960b81b815250611167565b610649611201565b565b600061065960335460ff1690565b156106a65760405162461bcd60e51b815260206004820152601a60248201527f726573696c69656e74206f7261636c65206973207061757365640000000000006044820152606401610480565b6106af82611253565b92915050565b805160609060008167ffffffffffffffff8111156106d5576106d5611c4d565b6040519080825280602002602001820160405280156106fe578160200160208202803683370190505b50905060005b828110156107535761072e858281518110610721576107216120d5565b6020026020010151610fd7565b828281518110610740576107406120d5565b6020908102919091010152600101610704565b509392505050565b826001600160a01b0381166107825760405162461bcd60e51b8152600401610480906120eb565b6001600160a01b03808516600090815260fb60205260409020548591166107e55760405162461bcd60e51b81526020600482015260176024820152761d1bdad95b8818dbdb999a59c81b5d5cdd08195e1a5cdd604a1b6044820152606401610480565b6108236040518060400160405280602081526020017f656e61626c654f7261636c6528616464726573732c75696e74382c626f6f6c29815250611167565b6001600160a01b038516600090815260fb6020526040902083906004018560028111156108525761085261211a565b60038110610862576108626120d5565b602091828204019190066101000a81548160ff0219169083151502179055508215158460028111156108965761089661211a565b6040516001600160a01b038816907fcf3cad1ec87208efbde5d82a0557484a78d4182c3ad16926a5463bc1f7234b3d90600090a45050505050565b6108d961104f565b6106496000611465565b60975433906001600160a01b031681146109515760405162461bcd60e51b815260206004820152602960248201527f4f776e61626c6532537465703a2063616c6c6572206973206e6f7420746865206044820152683732bb9037bbb732b960b91b6064820152608401610480565b61043c81611465565b610982604051806040016040528060078152602001667061757365282960c81b815250611167565b61064961147e565b6001600160a01b038216600090815260fb6020526040812081906001018360028111156109b9576109b961211a565b600381106109c9576109c96120d5565b01546001600160a01b03858116600090815260fb60205260409020911692506004018360028111156109fd576109fd61211a565b60038110610a0d57610a0d6120d5565b602091828204019190069054906101000a900460ff1690509250929050565b6000610a37826114bb565b9050600080610a4783600161098a565b90925090506001600160a01b03821615801590610a615750805b15610ad15760405163725068a560e01b81526001600160a01b03848116600483015283169063725068a5906024016020604051808303816000875af1925050508015610aca575060408051601f3d908101601f19168201909252610ac791810190612130565b60015b15610ad157505b50505050565b826001600160a01b038116610afe5760405162461bcd60e51b8152600401610480906120eb565b6001600160a01b03808516600090815260fb6020526040902054859116610b615760405162461bcd60e51b81526020600482015260176024820152761d1bdad95b8818dbdb999a59c81b5d5cdd08195e1a5cdd604a1b6044820152606401610480565b610b9f6040518060400160405280602081526020017f7365744f7261636c6528616464726573732c616464726573732c75696e743829815250611167565b6001600160a01b038416158015610bc757506000836002811115610bc557610bc561211a565b145b15610c225760405162461bcd60e51b815260206004820152602560248201527f63616e277420736574207a65726f206164647265737320746f206d61696e206f6044820152647261636c6560d81b6064820152608401610480565b6001600160a01b038516600090815260fb602052604090208490600101846002811115610c5157610c5161211a565b60038110610c6157610c616120d5565b0180546001600160a01b0319166001600160a01b0392909216919091179055826002811115610c9257610c9261211a565b846001600160a01b0316866001600160a01b03167fea681d3efb830ef032a9c29a7215b5ceeeb546250d2c463dbf87817aecda1bf160405160405180910390a45050505050565b600080610ce783600161098a565b90925090506001600160a01b03821615801590610d015750805b156104c05760405163725068a560e01b81526001600160a01b03848116600483015283169063725068a5906024016020604051808303816000875af1925050508015610d6a575060408051601f3d908101601f19168201909252610d6791810190612130565b60015b156104c05750505050565b600054610100900460ff1615808015610d955750600054600160ff909116105b80610daf5750303b158015610daf575060005460ff166001145b610e125760405162461bcd60e51b815260206004820152602e60248201527f496e697469616c697a61626c653a20636f6e747261637420697320616c72656160448201526d191e481a5b9a5d1a585b1a5e995960921b6064820152608401610480565b6000805460ff191660011790558015610e35576000805461ff0019166101001790555b610e3e826115db565b610e46611613565b8015610e8d576000805461ff0019169055604051600181527f7f26b83ff96e1f2b6a682f133852f6798a09c465da95921460cefb3847402498906020015b60405180910390a15b5050565b610e99611bb3565b6001600160a01b03828116600090815260fb60209081526040918290208251606080820185528254909516815283519485019384905293909291840191600184019060039082845b81546001600160a01b03168152600190910190602001808311610ee1575050509183525050604080516060810191829052602090920191906004840190600390826000855b825461010083900a900460ff161515815260206001928301818104948501949093039092029101808411610f265790505050505050815250509050919050565b610f6e61104f565b609780546001600160a01b0383166001600160a01b03199091168117909155610f9f6065546001600160a01b031690565b6001600160a01b03167f38d16b8cac22d99fc7c124b9cd0de2d3fa1faef420bfe791d8c362d765e2270060405160405180910390a350565b6000610fe560335460ff1690565b156110325760405162461bcd60e51b815260206004820152601a60248201527f726573696c69656e74206f7261636c65206973207061757365640000000000006044820152606401610480565b600061103d836114bb565b905061104881611253565b9392505050565b6065546001600160a01b031633146106495760405162461bcd60e51b815260206004820181905260248201527f4f776e61626c653a2063616c6c6572206973206e6f7420746865206f776e65726044820152606401610480565b6001600160a01b03811661110d5760405162461bcd60e51b815260206004820152602560248201527f696e76616c696420616365737320636f6e74726f6c206d616e61676572206164604482015264647265737360d81b6064820152608401610480565b60c980546001600160a01b038381166001600160a01b031983168117909355604080519190921680825260208201939093527f66fd58e82f7b31a2a5c30e0888f3093efe4e111b00cd2b0c31fe014601293aa09101610e84565b60c9546040516318c5e8ab60e01b81526000916001600160a01b0316906318c5e8ab9061119a903390869060040161218f565b602060405180830381865afa1580156111b7573d6000803e3d6000fd5b505050506040513d601f19601f820116820180604052508101906111db91906121bb565b905080610e8d57333083604051634a3fa29360e01b8152600401610480939291906121d8565b611209611642565b6033805460ff191690557f5db9ee0a495bf2e6ff9c91a7834c1ba4fdd244a5e8aa4e537bd38aeae4b073aa335b6040516001600160a01b03909116815260200160405180910390a1565b600080808061126385600161098a565b9150915080801561127c57506001600160a01b03821615155b156112eb576040516341976e0960e01b81526001600160a01b0386811660048301528316906341976e0990602401602060405180830381865afa9250505080156112e3575060408051601f3d908101601f191682019092526112e091810190612130565b60015b156112eb5792505b60008061130d878685801561130857506001600160a01b03871615155b61168b565b915091506000821415801561131f5750805b1561132e575095945050505050565b60008061133b898861180e565b915091506000821415801561134d5750805b1561135e5750979650505050505050565b831580159061136c57508115155b801561140b5750604051634be3819f60e11b81526001600160a01b038a8116600483015260248201869052604482018490527f000000000000000000000000000000000000000000000000000000000000000016906397c7033e90606401602060405180830381865afa1580156113e7573d6000803e3d6000fd5b505050506040513d601f19601f8201168201806040525081019061140b91906121bb565b1561141d575091979650505050505050565b60405162461bcd60e51b815260206004820152601e60248201527f696e76616c696420726573696c69656e74206f7261636c6520707269636500006044820152606401610480565b609780546001600160a01b031916905561043c8161197d565b6114866119cf565b6033805460ff191660011790557f62e78cea01bee320cd4e420270b5ea74000d11b0c9f74754ebdbfc544b05a2586112363390565b6000816001600160a01b0381166114e45760405162461bcd60e51b8152600401610480906120eb565b826001600160a01b031663ac784ddc6040518163ffffffff1660e01b8152600401602060405180830381865afa158015611522573d6000803e3d6000fd5b505050506040513d601f19601f8201168201806040525081019061154691906121bb565b15611573577f000000000000000000000000000000000000000000000000000000000000000091506115d5565b826001600160a01b0316636f307dc36040518163ffffffff1660e01b8152600401602060405180830381865afa1580156115b1573d6000803e3d6000fd5b505050506040513d601f19601f82011682018060405250810190611048919061220d565b50919050565b600054610100900460ff166116025760405162461bcd60e51b81526004016104809061222a565b61160a611a15565b61043c81611a44565b600054610100900460ff1661163a5760405162461bcd60e51b81526004016104809061222a565b610649611a6b565b60335460ff166106495760405162461bcd60e51b815260206004820152601460248201527314185d5cd8589b194e881b9bdd081c185d5cd95960621b6044820152606401610480565b60008060008061169c87600061098a565b915091508080156116b557506001600160a01b03821615155b156117fc576040516341976e0960e01b81526001600160a01b0388811660048301528316906341976e0990602401602060405180830381865afa92505050801561171c575060408051601f3d908101601f1916820190925261171991810190612130565b60015b61172e57600080935093505050611806565b8561174157935060019250611806915050565b8661175457935060009250611806915050565b604051634be3819f60e11b81526001600160a01b038981166004830152602482018390526044820189905282917f0000000000000000000000000000000000000000000000000000000000000000909116906397c7033e90606401602060405180830381865afa1580156117cc573d6000803e3d6000fd5b505050506040513d601f19601f820116820180604052508101906117f091906121bb565b94509450505050611806565b6000809350935050505b935093915050565b60008060008061181f86600261098a565b9150915080801561183857506001600160a01b03821615155b1561196c576040516341976e0960e01b81526001600160a01b0387811660048301528316906341976e0990602401602060405180830381865afa92505050801561189f575060408051601f3d908101601f1916820190925261189c91810190612130565b60015b6118b157600080935093505050611976565b856118c457935060009250611976915050565b604051634be3819f60e11b81526001600160a01b038881166004830152602482018390526044820188905282917f0000000000000000000000000000000000000000000000000000000000000000909116906397c7033e90606401602060405180830381865afa15801561193c573d6000803e3d6000fd5b505050506040513d601f19601f8201168201806040525081019061196091906121bb565b94509450505050611976565b6000809350935050505b9250929050565b606580546001600160a01b038381166001600160a01b0319831681179093556040519116919082907f8be0079c531659141344cd1fd0a4f28419497f9722a3daafe3b4186f6b6457e090600090a35050565b60335460ff16156106495760405162461bcd60e51b815260206004820152601060248201526f14185d5cd8589b194e881c185d5cd95960821b6044820152606401610480565b600054610100900460ff16611a3c5760405162461bcd60e51b81526004016104809061222a565b610649611a9e565b600054610100900460ff166104335760405162461bcd60e51b81526004016104809061222a565b600054610100900460ff16611a925760405162461bcd60e51b81526004016104809061222a565b6033805460ff19169055565b600054610100900460ff16611ac55760405162461bcd60e51b81526004016104809061222a565b61064933611465565b8260038101928215611b16579160200282015b82811115611b1657825182546001600160a01b0319166001600160a01b03909116178255602090920191600190910190611ae1565b50611b22929150611be8565b5090565b600183019183908215611b165791602002820160005b83821115611b7957835183826101000a81548160ff0219169083151502179055509260200192600101602081600001049283019260010302611b3c565b8015611ba65782816101000a81549060ff0219169055600101602081600001049283019260010302611b79565b5050611b22929150611be8565b604051806060016040528060006001600160a01b03168152602001611bd6611bfd565b8152602001611be3611bfd565b905290565b5b80821115611b225760008155600101611be9565b60405180606001604052806003906020820280368337509192915050565b6001600160a01b038116811461043c57600080fd5b600060208284031215611c4257600080fd5b813561104881611c1b565b634e487b7160e01b600052604160045260246000fd5b6040516060810167ffffffffffffffff81118282101715611c8657611c86611c4d565b60405290565b604051601f8201601f1916810167ffffffffffffffff81118282101715611cb557611cb5611c4d565b604052919050565b600067ffffffffffffffff821115611cd757611cd7611c4d565b5060051b60200190565b801515811461043c57600080fd5b600082601f830112611d0057600080fd5b611d08611c63565b806060840185811115611d1a57600080fd5b845b81811015611d3d578035611d2f81611ce1565b845260209384019301611d1c565b509095945050505050565b600060e08284031215611d5a57600080fd5b611d62611c63565b90508135611d6f81611c1b565b81526020603f83018413611d8257600080fd5b611d8a611c63565b806080850186811115611d9c57600080fd5b602086015b81811015611dc1578035611db481611c1b565b8452928401928401611da1565b50816020860152611dd28782611cef565b60408601525050505092915050565b60006020808385031215611df457600080fd5b823567ffffffffffffffff811115611e0b57600080fd5b8301601f81018513611e1c57600080fd5b8035611e2f611e2a82611cbd565b611c8c565b8082825260208201915060e0602060e08502860101935088841115611e5357600080fd5b6020850194505b83851015611e7b57611e6c8986611d48565b83529384019391850191611e5a565b50979650505050505050565b600060e08284031215611e9957600080fd5b6110488383611d48565b60006020808385031215611eb657600080fd5b823567ffffffffffffffff811115611ecd57600080fd5b8301601f81018513611ede57600080fd5b8035611eec611e2a82611cbd565b81815260059190911b82018301908381019087831115611f0b57600080fd5b928401925b82841015611f32578335611f2381611c1b565b82529284019290840190611f10565b979650505050505050565b6020808252825182820181905260009190848201906040850190845b81811015611f7557835183529284019291840191600101611f59565b50909695505050505050565b803560038110611f9057600080fd5b919050565b600080600060608486031215611faa57600080fd5b8335611fb581611c1b565b9250611fc360208501611f81565b91506040840135611fd381611ce1565b809150509250925092565b60008060408385031215611ff157600080fd5b8235611ffc81611c1b565b915061200a60208401611f81565b90509250929050565b60008060006060848603121561202857600080fd5b833561203381611c1b565b9250602084013561204381611c1b565b915061205160408501611f81565b90509250925092565b81516001600160a01b03908116825260208084015160e0840192919081850160005b600381101561209b57825185168252918301919083019060010161207c565b505050604085015191506080840160005b60038110156120cb5783511515825292820192908201906001016120ac565b5050505092915050565b634e487b7160e01b600052603260045260246000fd5b60208082526015908201527463616e2774206265207a65726f206164647265737360581b604082015260600190565b634e487b7160e01b600052602160045260246000fd5b60006020828403121561214257600080fd5b5051919050565b6000815180845260005b8181101561216f57602081850181015186830182015201612153565b506000602082860101526020601f19601f83011685010191505092915050565b6001600160a01b03831681526040602082018190526000906121b390830184612149565b949350505050565b6000602082840312156121cd57600080fd5b815161104881611ce1565b6001600160a01b0384811682528316602082015260606040820181905260009061220490830184612149565b95945050505050565b60006020828403121561221f57600080fd5b815161104881611c1b565b6020808252602b908201527f496e697469616c697a61626c653a20636f6e7472616374206973206e6f74206960408201526a6e697469616c697a696e6760a81b60608201526080019056fea2646970667358221220bdd9140afd19c2654fde7fb78a361f153f617d74cd70c372acb9f7a1067a2c9264736f6c63430008190033",
  "devdoc": {
    "author": "Venus",
    "events": {
      "Initialized(uint8)": {
        "details": "Triggered when the contract has been initialized or reinitialized."
      },
      "Paused(address)": {
        "details": "Emitted when the pause is triggered by `account`."
      },
      "Unpaused(address)": {
        "details": "Emitted when the pause is lifted by `account`."
      }
    },
    "kind": "dev",
    "methods": {
      "acceptOwnership()": {
        "details": "The new owner accepts the ownership transfer."
      },
      "constructor": {
        "custom:oz-upgrades-unsafe-allow": "constructor",
        "details": "nativeMarketAddress can be address(0) if on the chain we do not support native market      (e.g vETH on ethereum would not be supported, only vWETH)",
        "params": {
          "_boundValidator": "Address of the bound validator contract",
          "nativeAssetAddress": "The address of a native asset (for ethereum it would be WETH address)"
        }
      },
      "enableOracle(address,uint8,bool)": {
        "custom:access": "Only Governance",
        "custom:error": "NotNullAddress error is thrown if asset address is nullTokenConfigExistance error is thrown if token config is not set",
        "details": "Configuration for the asset **must** already exist and the asset cannot be 0 address",
        "params": {
          "asset": "Asset address",
          "enable": "Enabled boolean of the oracle",
          "role": "Oracle role"
        }
      },
      "getOracle(address,uint8)": {
        "params": {
          "asset": "asset address",
          "role": "Oracle role"
        },
        "returns": {
          "enabled": "Enabled flag of the oracle based on token config",
          "oracle": "Oracle address based on role"
        }
      },
      "getPrice(address)": {
        "custom:error": "Paused error is thrown when resilent oracle is pausedInvalid resilient oracle price error is thrown if fetched prices from oracle is invalid",
        "params": {
          "asset": "asset address"
        },
        "returns": {
          "_0": "price USD price in scaled decimal places."
        }
      },
      "getTokenConfig(address)": {
        "details": "Gets token config by asset address",
        "params": {
          "asset": "asset address"
        },
        "returns": {
          "_0": "tokenConfig Config for the asset"
        }
      },
      "getUnderlyingPrice(address)": {
        "custom:error": "Paused error is thrown when resilent oracle is pausedInvalid resilient oracle price error is thrown if fetched prices from oracle is invalid",
        "params": {
          "vToken": "vToken address"
        },
        "returns": {
          "_0": "price USD price in scaled decimal places."
        }
      },
      "initialize(address)": {
        "params": {
          "accessControlManager_": "Address of the access control manager contract"
        }
      },
      "owner()": {
        "details": "Returns the address of the current owner."
      },
      "pause()": {
        "custom:access": "Only Governance"
      },
      "paused()": {
        "details": "Returns true if the contract is paused, and false otherwise."
      },
      "pendingOwner()": {
        "details": "Returns the address of the pending owner."
      },
      "renounceOwnership()": {
        "details": "Leaves the contract without owner. It will not be possible to call `onlyOwner` functions. Can only be called by the current owner. NOTE: Renouncing ownership will leave the contract without an owner, thereby disabling any functionality that is only available to the owner."
      },
      "setAccessControlManager(address)": {
        "custom:access": "Only Governance",
        "custom:event": "Emits NewAccessControlManager event",
        "details": "Admin function to set address of AccessControlManager",
        "params": {
          "accessControlManager_": "The new address of the AccessControlManager"
        }
      },
      "setOracle(address,address,uint8)": {
        "custom:access": "Only Governance",
        "custom:error": "Null address error if main-role oracle address is nullNotNullAddress error is thrown if asset address is nullTokenConfigExistance error is thrown if token config is not set",
        "custom:event": "Emits OracleSet event with asset address, oracle address and role of the oracle for the asset",
        "details": "Supplied asset **must** exist and main oracle may not be null",
        "params": {
          "asset": "Asset address",
          "oracle": "Oracle address",
          "role": "Oracle role"
        }
      },
      "setTokenConfig((address,address[3],bool[3]))": {
        "custom:access": "Only Governance",
        "custom:error": "NotNullAddress is thrown if asset address is nullNotNullAddress is thrown if main-role oracle address for asset is null",
        "custom:event": "Emits TokenConfigAdded event when the asset config is set successfully by the authorized account",
        "details": "main oracle **must not** be a null address",
        "params": {
          "tokenConfig": "Token config struct"
        }
      },
      "setTokenConfigs((address,address[3],bool[3])[])": {
        "custom:access": "Only Governance",
        "custom:error": "Throws a length error if the length of the token configs array is 0",
        "params": {
          "tokenConfigs_": "Token config array"
        }
      },
      "transferOwnership(address)": {
        "details": "Starts the ownership transfer of the contract to a new account. Replaces the pending transfer if there is one. Can only be called by the current owner."
      },
      "unpause()": {
        "custom:access": "Only Governance"
      },
      "updateAssetPrice(address)": {
        "details": "This function should always be called before calling getPrice",
        "params": {
          "asset": "asset address"
        }
      },
      "updatePrice(address)": {
        "details": "This function should always be called before calling getUnderlyingPrice",
        "params": {
          "vToken": "vToken address"
        }
      }
    },
    "stateVariables": {
      "boundValidator": {
        "custom:oz-upgrades-unsafe-allow": "state-variable-immutable"
      },
      "nativeMarket": {
        "custom:oz-upgrades-unsafe-allow": "state-variable-immutable"
      },
      "vai": {
        "custom:oz-upgrades-unsafe-allow": "state-variable-immutable"
      }
    },
    "title": "ResilientOracle",
    "version": 1
  },
  "userdoc": {
    "errors": {
      "Unauthorized(address,address,string)": [
        {
          "notice": "Thrown when the action is prohibited by AccessControlManager"
        }
      ]
    },
    "events": {
      "NewAccessControlManager(address,address)": {
        "notice": "Emitted when access control manager contract address is changed"
      },
      "OracleEnabled(address,uint256,bool)": {
        "notice": "Event emitted when an oracle is enabled or disabled"
      },
      "OracleSet(address,address,uint256)": {
        "notice": "Event emitted when an oracle is set"
      }
    },
    "kind": "user",
    "methods": {
      "accessControlManager()": {
        "notice": "Returns the address of the access control manager contract"
      },
      "boundValidator()": {
        "notice": "Bound validator contract address"
      },
      "constructor": {
        "notice": "Constructor for the implementation contract. Sets immutable variables."
      },
      "enableOracle(address,uint8,bool)": {
        "notice": "Enables/ disables oracle for the input asset. Token config for the input asset **must** exist"
      },
      "getOracle(address,uint8)": {
        "notice": "Gets oracle and enabled status by asset address"
      },
      "getPrice(address)": {
        "notice": "Gets price of the asset"
      },
      "getUnderlyingPrice(address)": {
        "notice": "Gets price of the underlying asset for a given vToken. Validation flow: - Check if the oracle is paused globally - Validate price from main oracle against pivot oracle - Validate price from fallback oracle against pivot oracle if the first validation failed - Validate price from main oracle against fallback oracle if the second validation failed In the case that the pivot oracle is not available but main price is available and validation is successful, main oracle price is returned."
      },
      "initialize(address)": {
        "notice": "Initializes the contract admin and sets the BoundValidator contract address"
      },
      "nativeAsset()": {
        "notice": "Set this as asset address for Native token on each chain."
      },
      "nativeMarket()": {
        "notice": "deprecated, keep it here just to maintain the storage layoutNative market address"
      },
      "pause()": {
        "notice": "Pauses oracle"
      },
      "setAccessControlManager(address)": {
        "notice": "Sets the address of AccessControlManager"
      },
      "setOracle(address,address,uint8)": {
        "notice": "Sets oracle for a given asset and role."
      },
      "setTokenConfig((address,address[3],bool[3]))": {
        "notice": "Sets/resets single token configs."
      },
      "setTokenConfigs((address,address[3],bool[3])[])": {
        "notice": "Batch sets token configs"
      },
      "unpause()": {
        "notice": "Unpauses oracle"
      },
      "updateAssetPrice(address)": {
        "notice": "Updates the pivot oracle price. Currently using TWAP"
      },
      "updatePrice(address)": {
        "notice": "Updates the TWAP pivot oracle price."
      },
      "vai()": {
        "notice": "deprecated, keeip it here just to maintain the storage layoutVAI address"
      }
    },
    "notice": "The Resilient Oracle is the main contract that the protocol uses to fetch prices of assets. DeFi protocols are vulnerable to price oracle failures including oracle manipulation and incorrectly reported prices. If only one oracle is used, this creates a single point of failure and opens a vector for attacking the protocol. The Resilient Oracle uses multiple sources and fallback mechanisms to provide accurate prices and protect the protocol from oracle attacks. Currently it includes integrations with Chainlink, Pyth, Binance Oracle and TWAP (Time-Weighted Average Price) oracles. TWAP uses PancakeSwap as the on-chain price source. For every market (vToken) we configure the main, pivot and fallback oracles. The oracles are configured per vToken's underlying asset address. The main oracle oracle is the most trustworthy price source, the pivot oracle is used as a loose sanity checker and the fallback oracle is used as a backup price source. To validate prices returned from two oracles, we use an upper and lower bound ratio that is set for every market. The upper bound ratio represents the deviation between reported price (the price thats being validated) and the anchor price (the price we are validating against) above which the reported price will be invalidated. The lower bound ratio presents the deviation between reported price and anchor price below which the reported price will be invalidated. So for oracle price to be considered valid the below statement should be true: ``` anchorRatio = anchorPrice/reporterPrice isValid = anchorRatio <= upperBoundAnchorRatio && anchorRatio >= lowerBoundAnchorRatio ``` In most cases, Chainlink is used as the main oracle, TWAP or Pyth oracles are used as the pivot oracle depending on which supports the given market and Binance oracle is used as the fallback oracle. For some markets we may use Pyth or TWAP as the main oracle if the token price is not supported by Chainlink or Binance oracles. For a fetched price to be valid it must be positive and not stagnant. If the price is invalid then we consider the oracle to be stagnant and treat it like it's disabled.",
    "version": 1
  },
  "storageLayout": {
    "storage": [
      {
        "astId": 246,
        "contract": "contracts/ResilientOracle.sol:ResilientOracle",
        "label": "_initialized",
        "offset": 0,
        "slot": "0",
        "type": "t_uint8"
      },
      {
        "astId": 249,
        "contract": "contracts/ResilientOracle.sol:ResilientOracle",
        "label": "_initializing",
        "offset": 1,
        "slot": "0",
        "type": "t_bool"
      },
      {
        "astId": 916,
        "contract": "contracts/ResilientOracle.sol:ResilientOracle",
        "label": "__gap",
        "offset": 0,
        "slot": "1",
        "type": "t_array(t_uint256)50_storage"
      },
      {
        "astId": 430,
        "contract": "contracts/ResilientOracle.sol:ResilientOracle",
        "label": "_paused",
        "offset": 0,
        "slot": "51",
        "type": "t_bool"
      },
      {
        "astId": 535,
        "contract": "contracts/ResilientOracle.sol:ResilientOracle",
        "label": "__gap",
        "offset": 0,
        "slot": "52",
        "type": "t_array(t_uint256)49_storage"
      },
      {
        "astId": 118,
        "contract": "contracts/ResilientOracle.sol:ResilientOracle",
        "label": "_owner",
        "offset": 0,
        "slot": "101",
        "type": "t_address"
      },
      {
        "astId": 238,
        "contract": "contracts/ResilientOracle.sol:ResilientOracle",
        "label": "__gap",
        "offset": 0,
        "slot": "102",
        "type": "t_array(t_uint256)49_storage"
      },
      {
        "astId": 11,
        "contract": "contracts/ResilientOracle.sol:ResilientOracle",
        "label": "_pendingOwner",
        "offset": 0,
        "slot": "151",
        "type": "t_address"
      },
      {
        "astId": 105,
        "contract": "contracts/ResilientOracle.sol:ResilientOracle",
        "label": "__gap",
        "offset": 0,
        "slot": "152",
        "type": "t_array(t_uint256)49_storage"
      },
      {
        "astId": 1107,
        "contract": "contracts/ResilientOracle.sol:ResilientOracle",
        "label": "_accessControlManager",
        "offset": 0,
        "slot": "201",
        "type": "t_contract(IAccessControlManagerV8)1292"
      },
      {
        "astId": 1112,
        "contract": "contracts/ResilientOracle.sol:ResilientOracle",
        "label": "__gap",
        "offset": 0,
        "slot": "202",
        "type": "t_array(t_uint256)49_storage"
      },
      {
        "astId": 1345,
        "contract": "contracts/ResilientOracle.sol:ResilientOracle",
        "label": "tokenConfigs",
        "offset": 0,
        "slot": "251",
        "type": "t_mapping(t_address,t_struct(TokenConfig)1324_storage)"
      }
    ],
    "types": {
      "t_address": {
        "encoding": "inplace",
        "label": "address",
        "numberOfBytes": "20"
      },
      "t_array(t_address)3_storage": {
        "base": "t_address",
        "encoding": "inplace",
        "label": "address[3]",
        "numberOfBytes": "96"
      },
      "t_array(t_bool)3_storage": {
        "base": "t_bool",
        "encoding": "inplace",
        "label": "bool[3]",
        "numberOfBytes": "32"
      },
      "t_array(t_uint256)49_storage": {
        "base": "t_uint256",
        "encoding": "inplace",
        "label": "uint256[49]",
        "numberOfBytes": "1568"
      },
      "t_array(t_uint256)50_storage": {
        "base": "t_uint256",
        "encoding": "inplace",
        "label": "uint256[50]",
        "numberOfBytes": "1600"
      },
      "t_bool": {
        "encoding": "inplace",
        "label": "bool",
        "numberOfBytes": "1"
      },
      "t_contract(IAccessControlManagerV8)1292": {
        "encoding": "inplace",
        "label": "contract IAccessControlManagerV8",
        "numberOfBytes": "20"
      },
      "t_mapping(t_address,t_struct(TokenConfig)1324_storage)": {
        "encoding": "mapping",
        "key": "t_address",
        "label": "mapping(address => struct ResilientOracle.TokenConfig)",
        "numberOfBytes": "32",
        "value": "t_struct(TokenConfig)1324_storage"
      },
      "t_struct(TokenConfig)1324_storage": {
        "encoding": "inplace",
        "label": "struct ResilientOracle.TokenConfig",
        "members": [
          {
            "astId": 1313,
            "contract": "contracts/ResilientOracle.sol:ResilientOracle",
            "label": "asset",
            "offset": 0,
            "slot": "0",
            "type": "t_address"
          },
          {
            "astId": 1318,
            "contract": "contracts/ResilientOracle.sol:ResilientOracle",
            "label": "oracles",
            "offset": 0,
            "slot": "1",
            "type": "t_array(t_address)3_storage"
          },
          {
            "astId": 1323,
            "contract": "contracts/ResilientOracle.sol:ResilientOracle",
            "label": "enableFlagsForOracles",
            "offset": 0,
            "slot": "4",
            "type": "t_array(t_bool)3_storage"
          }
        ],
        "numberOfBytes": "160"
      },
      "t_uint256": {
        "encoding": "inplace",
        "label": "uint256",
        "numberOfBytes": "32"
      },
      "t_uint8": {
        "encoding": "inplace",
        "label": "uint8",
        "numberOfBytes": "1"
      }
    }
  }
}