{
  "address": "0x3bCE337Fb6B52BeC2C2E4f2bD84F864E5d629Dd9",
  "abi": [
    {
      "inputs": [
        {
          "internalType": "address",
          "name": "MTRG",
          "type": "address"
        },
        {
          "internalType": "address",
          "name": "resilientOracle",
          "type": "address"
        }
      ],
      "stateMutability": "nonpayable",
      "type": "constructor"
    },
    {
      "inputs": [],
      "name": "InvalidTokenAddress",
      "type": "error"
    },
    {
      "inputs": [],
      "name": "ZeroAddressNotAllowed",
      "type": "error"
    },
    {
      "inputs": [],
      "name": "RESILIENT_ORACLE",
      "outputs": [
        {
          "internalType": "contract OracleInterface",
          "name": "",
          "type": "address"
        }
      ],
      "stateMutability": "view",
      "type": "function"
    },
    {
      "inputs": [],
      "name": "UNDERLYING_TOKEN",
      "outputs": [
        {
          "internalType": "address",
          "name": "",
          "type": "address"
        }
      ],
      "stateMutability": "view",
      "type": "function"
    },
    {
      "inputs": [
        {
          "internalType": "address",
          "name": "correlatedToken",
          "type": "address"
        }
      ],
      "name": "getPrice",
      "outputs": [
        {
          "internalType": "uint256",
          "name": "",
          "type": "uint256"
        }
      ],
      "stateMutability": "view",
      "type": "function"
    }
  ],
  "transactionHash": "0x6ba156ff66384c6a0048ce14568fc532ccf4e686630ee703e81f048a1b169be1",
  "args": [
    "0x8A419Ef4941355476cf04933E90Bf3bbF2F73814",
    "0xE790D0916B0BaC27ad696F56aF3d55f189981b3D"
  ],
  "numDeployments": 1,
  "solcInputHash": "63ec37ef8b06a5db4094498901ba54ba",
  "bytecode": "0x60c060405234801561001057600080fd5b506040516103eb3803806103eb83398101604081905261002f916100a3565b818161003a8261005d565b6100438161005d565b6001600160a01b039182166080521660a052506100d69050565b6001600160a01b038116610084576040516342bcdf7f60e11b815260040160405180910390fd5b50565b80516001600160a01b038116811461009e57600080fd5b919050565b600080604083850312156100b657600080fd5b6100bf83610087565b91506100cd60208401610087565b90509250929050565b60805160a0516102e56101066000396000818160b00152610123015260008181604b015260f501526102e56000f3fe608060405234801561001057600080fd5b50600436106100415760003560e01c806329db1be61461004657806341976e091461008a578063a4edcd4c146100ab575b600080fd5b61006d7f000000000000000000000000000000000000000000000000000000000000000081565b6040516001600160a01b0390911681526020015b60405180910390f35b61009d61009836600461021f565b6100d2565b604051908152602001610081565b61006d7f000000000000000000000000000000000000000000000000000000000000000081565b6000806100de836101b5565b6040516341976e0960e01b81526001600160a01b037f0000000000000000000000000000000000000000000000000000000000000000811660048301529192506000917f000000000000000000000000000000000000000000000000000000000000000016906341976e0990602401602060405180830381865afa15801561016a573d6000803e3d6000fd5b505050506040513d601f19601f8201168201806040525081019061018e919061024f565b9050670de0b6b3a76400006101a38284610268565b6101ad919061028d565b949350505050565b6000816001600160a01b0316635638467b6040518163ffffffff1660e01b8152600401602060405180830381865afa1580156101f5573d6000803e3d6000fd5b505050506040513d601f19601f82011682018060405250810190610219919061024f565b92915050565b60006020828403121561023157600080fd5b81356001600160a01b038116811461024857600080fd5b9392505050565b60006020828403121561026157600080fd5b5051919050565b808202811582820484141761021957634e487b7160e01b600052601160045260246000fd5b6000826102aa57634e487b7160e01b600052601260045260246000fd5b50049056fea264697066735822122052b5eb5e9756a89716ee20a2c1e99e2dfea6fa10afd9ecd0b1e298beefc6de1d64736f6c63430008190033",
  "devdoc": {
    "author": "Venus",
    "kind": "dev",
    "methods": {
      "constructor": {
        "custom:oz-upgrades-unsafe-allow": "constructor"
      },
      "getPrice(address)": {
        "params": {
          "correlatedToken": "Address of the correlated token"
        },
        "returns": {
          "_0": "price The price of the correlated token in scaled decimal places"
        }
      }
    },
    "title": "wstMTRGOracle",
    "version": 1
  },
  "userdoc": {
    "errors": {
      "InvalidTokenAddress()": [
        {
          "notice": "Thrown if the token address is invalid"
        }
      ],
      "ZeroAddressNotAllowed()": [
        {
          "notice": "Thrown if the supplied address is a zero address where it is not allowed"
        }
      ]
    },
    "kind": "user",
    "methods": {
      "RESILIENT_ORACLE()": {
        "notice": "Address of Resilient Oracle"
      },
      "UNDERLYING_TOKEN()": {
        "notice": "Address of the underlying token"
      },
      "constructor": {
        "notice": "Constructor for the implementation contract."
      },
      "getPrice(address)": {
        "notice": "Fetches the price of the correlated token"
      }
    },
    "notice": "This oracle fetches the price of weETH",
    "version": 1
  },
  "storageLayout": {
    "storage": [],
    "types": null
  }
}