{
  "address": "0x0B6cc9fDEF58101b43Cd977D95e5f96D8De99638",
  "abi": [
    {
      "inputs": [],
      "stateMutability": "nonpayable",
      "type": "constructor"
    },
    {
      "inputs": [],
      "name": "InvalidDuration",
      "type": "error"
    },
    {
      "inputs": [
        {
          "internalType": "address",
          "name": "sender",
          "type": "address"
        },
        {
          "internalType": "address",
          "name": "calledContract",
          "type": "address"
        },
        {
          "internalType": "string",
          "name": "methodSignature",
          "type": "string"
        }
      ],
      "name": "Unauthorized",
      "type": "error"
    },
    {
      "inputs": [],
      "name": "ZeroAddressNotAllowed",
      "type": "error"
    },
    {
      "inputs": [],
      "name": "ZeroValueNotAllowed",
      "type": "error"
    },
    {
      "anonymous": false,
      "inputs": [
        {
          "indexed": false,
          "internalType": "uint8",
          "name": "version",
          "type": "uint8"
        }
      ],
      "name": "Initialized",
      "type": "event"
    },
    {
      "anonymous": false,
      "inputs": [
        {
          "indexed": true,
          "internalType": "address",
          "name": "oldOracle",
          "type": "address"
        },
        {
          "indexed": true,
          "internalType": "address",
          "name": "newOracle",
          "type": "address"
        }
      ],
      "name": "IntermediateOracleSet",
      "type": "event"
    },
    {
      "anonymous": false,
      "inputs": [
        {
          "indexed": false,
          "internalType": "address",
          "name": "oldAccessControlManager",
          "type": "address"
        },
        {
          "indexed": false,
          "internalType": "address",
          "name": "newAccessControlManager",
          "type": "address"
        }
      ],
      "name": "NewAccessControlManager",
      "type": "event"
    },
    {
      "anonymous": false,
      "inputs": [
        {
          "indexed": true,
          "internalType": "address",
          "name": "previousOwner",
          "type": "address"
        },
        {
          "indexed": true,
          "internalType": "address",
          "name": "newOwner",
          "type": "address"
        }
      ],
      "name": "OwnershipTransferStarted",
      "type": "event"
    },
    {
      "anonymous": false,
      "inputs": [
        {
          "indexed": true,
          "internalType": "address",
          "name": "previousOwner",
          "type": "address"
        },
        {
          "indexed": true,
          "internalType": "address",
          "name": "newOwner",
          "type": "address"
        }
      ],
      "name": "OwnershipTransferred",
      "type": "event"
    },
    {
      "anonymous": false,
      "inputs": [
        {
          "indexed": true,
          "internalType": "address",
          "name": "oldOracle",
          "type": "address"
        },
        {
          "indexed": true,
          "internalType": "address",
          "name": "newOracle",
          "type": "address"
        }
      ],
      "name": "PtOracleSet",
      "type": "event"
    },
    {
      "anonymous": false,
      "inputs": [
        {
          "indexed": true,
          "internalType": "address",
          "name": "asset",
          "type": "address"
        },
        {
          "indexed": false,
          "internalType": "address",
          "name": "market",
          "type": "address"
        },
        {
          "indexed": false,
          "internalType": "uint32",
          "name": "twapDuration",
          "type": "uint32"
        }
      ],
      "name": "TokenConfigAdded",
      "type": "event"
    },
    {
      "anonymous": false,
      "inputs": [
        {
          "indexed": true,
          "internalType": "address",
          "name": "oldAddress",
          "type": "address"
        },
        {
          "indexed": true,
          "internalType": "address",
          "name": "newAddress",
          "type": "address"
        }
      ],
      "name": "UnderlyingAssetSet",
      "type": "event"
    },
    {
      "inputs": [],
      "name": "acceptOwnership",
      "outputs": [],
      "stateMutability": "nonpayable",
      "type": "function"
    },
    {
      "inputs": [],
      "name": "accessControlManager",
      "outputs": [
        {
          "internalType": "contract IAccessControlManagerV8",
          "name": "",
          "type": "address"
        }
      ],
      "stateMutability": "view",
      "type": "function"
    },
    {
      "inputs": [
        {
          "internalType": "address",
          "name": "asset",
          "type": "address"
        }
      ],
      "name": "getPrice",
      "outputs": [
        {
          "internalType": "uint256",
          "name": "",
          "type": "uint256"
        }
      ],
      "stateMutability": "view",
      "type": "function"
    },
    {
      "inputs": [
        {
          "internalType": "address",
          "name": "accessControlManager_",
          "type": "address"
        },
        {
          "internalType": "address",
          "name": "ptOracle",
          "type": "address"
        },
        {
          "internalType": "address",
          "name": "resilientOracle",
          "type": "address"
        }
      ],
      "name": "initialize",
      "outputs": [],
      "stateMutability": "nonpayable",
      "type": "function"
    },
    {
      "inputs": [],
      "name": "intermediateOracle",
      "outputs": [
        {
          "internalType": "contract OracleInterface",
          "name": "",
          "type": "address"
        }
      ],
      "stateMutability": "view",
      "type": "function"
    },
    {
      "inputs": [],
      "name": "owner",
      "outputs": [
        {
          "internalType": "address",
          "name": "",
          "type": "address"
        }
      ],
      "stateMutability": "view",
      "type": "function"
    },
    {
      "inputs": [],
      "name": "pendingOwner",
      "outputs": [
        {
          "internalType": "address",
          "name": "",
          "type": "address"
        }
      ],
      "stateMutability": "view",
      "type": "function"
    },
    {
      "inputs": [],
      "name": "renounceOwnership",
      "outputs": [],
      "stateMutability": "nonpayable",
      "type": "function"
    },
    {
      "inputs": [
        {
          "internalType": "address",
          "name": "accessControlManager_",
          "type": "address"
        }
      ],
      "name": "setAccessControlManager",
      "outputs": [],
      "stateMutability": "nonpayable",
      "type": "function"
    },
    {
      "inputs": [
        {
          "internalType": "contract OracleInterface",
          "name": "intermediateOracle_",
          "type": "address"
        }
      ],
      "name": "setIntermediateOracle",
      "outputs": [],
      "stateMutability": "nonpayable",
      "type": "function"
    },
    {
      "inputs": [
        {
          "components": [
            {
              "internalType": "address",
              "name": "asset",
              "type": "address"
            },
            {
              "internalType": "address",
              "name": "market",
              "type": "address"
            },
            {
              "internalType": "uint32",
              "name": "twapDuration",
              "type": "uint32"
            }
          ],
          "internalType": "struct PendleOracle.TokenConfig",
          "name": "tokenConfig",
          "type": "tuple"
        }
      ],
      "name": "setTokenConfig",
      "outputs": [],
      "stateMutability": "nonpayable",
      "type": "function"
    },
    {
      "inputs": [
        {
          "components": [
            {
              "internalType": "address",
              "name": "asset",
              "type": "address"
            },
            {
              "internalType": "address",
              "name": "market",
              "type": "address"
            },
            {
              "internalType": "uint32",
              "name": "twapDuration",
              "type": "uint32"
            }
          ],
          "internalType": "struct PendleOracle.TokenConfig[]",
          "name": "tokenConfigs_",
          "type": "tuple[]"
        }
      ],
      "name": "setTokenConfigs",
      "outputs": [],
      "stateMutability": "nonpayable",
      "type": "function"
    },
    {
      "inputs": [
        {
          "internalType": "contract IPendlePtOracle",
          "name": "underlyingPtOracle_",
          "type": "address"
        }
      ],
      "name": "setUnderlyingPtOracle",
      "outputs": [],
      "stateMutability": "nonpayable",
      "type": "function"
    },
    {
      "inputs": [
        {
          "internalType": "address",
          "name": "",
          "type": "address"
        }
      ],
      "name": "tokenConfigs",
      "outputs": [
        {
          "internalType": "address",
          "name": "asset",
          "type": "address"
        },
        {
          "internalType": "address",
          "name": "market",
          "type": "address"
        },
        {
          "internalType": "uint32",
          "name": "twapDuration",
          "type": "uint32"
        }
      ],
      "stateMutability": "view",
      "type": "function"
    },
    {
      "inputs": [
        {
          "internalType": "address",
          "name": "newOwner",
          "type": "address"
        }
      ],
      "name": "transferOwnership",
      "outputs": [],
      "stateMutability": "nonpayable",
      "type": "function"
    },
    {
      "inputs": [],
      "name": "underlyingPtOracle",
      "outputs": [
        {
          "internalType": "contract IPendlePtOracle",
          "name": "",
          "type": "address"
        }
      ],
      "stateMutability": "view",
      "type": "function"
    }
  ],
  "transactionHash": "0xb868651a2f7dd354f4bdc2d8b0a8a593162b789642cd4b72625b952033a0cc43",
  "args": [],
  "numDeployments": 2,
  "solcInputHash": "10ebc167d3b9c33e2119763b44a88845",
  "bytecode": "0x6080604052348015600f57600080fd5b506016601a565b60d7565b600054610100900460ff161560855760405162461bcd60e51b815260206004820152602760248201527f496e697469616c697a61626c653a20636f6e747261637420697320696e697469604482015266616c697a696e6760c81b606482015260840160405180910390fd5b60005460ff9081161460d5576000805460ff191660ff9081179091556040519081527f7f26b83ff96e1f2b6a682f133852f6798a09c465da95921460cefb38474024989060200160405180910390a15b565b611653806100e66000396000f3fe608060405234801561001057600080fd5b50600436106101005760003560e01c8063b4a0bdf311610097578063e30c397811610066578063e30c397814610258578063e8cc7bed14610269578063ec5919ed1461027c578063f2fde38b1461028f57600080fd5b8063b4a0bdf31461020e578063b9f33cbe1461021f578063c0c53b8b14610232578063d7b911de1461024557600080fd5b80635ad9c59e116100d35780635ad9c59e146101c2578063715018a6146101ed57806379ba5097146101f55780638da5cb5b146101fd57600080fd5b80630e32cb86146101055780631b69dc5f1461011a57806335667a7b1461018e57806341976e09146101a1575b600080fd5b6101186101133660046111ad565b6102a2565b005b61015d6101283660046111ad565b60cb60205260009081526040902080546001909101546001600160a01b0391821691811690600160a01b900463ffffffff1683565b604080516001600160a01b03948516815293909216602084015263ffffffff16908201526060015b60405180910390f35b61011861019c3660046111ad565b6102b6565b6101b46101af3660046111ad565b6103c2565b604051908152602001610185565b60c9546101d5906001600160a01b031681565b6040516001600160a01b039091168152602001610185565b610118610667565b61011861067b565b6033546001600160a01b03166101d5565b6097546001600160a01b03166101d5565b61011861022d366004611297565b6106f2565b6101186102403660046112b3565b610abc565b60ca546101d5906001600160a01b031681565b6065546001600160a01b03166101d5565b6101186102773660046111ad565b610c75565b61011861028a3660046112fe565b610d78565b61011861029d3660046111ad565b610df9565b6102aa610e6a565b6102b381610ec4565b50565b806001600160a01b0381166102e65760405162461bcd60e51b81526004016102dd906113ae565b60405180910390fd5b6103246040518060400160405280601e81526020017f736574496e7465726d6564696174654f7261636c652861646472657373290000815250610f89565b6001600160a01b03821660000361036f5760405162461bcd60e51b815260206004820152600f60248201526e696e76616c6964206164647265737360881b60448201526064016102dd565b60ca80546001600160a01b038481166001600160a01b0319831681179093556040519116919082907f195a1673a235ad1c615626e11f05b44d3358c1fe815ec7c8f24d54b014af7c0690600090a3505050565b6001600160a01b03818116600081815260cb6020908152604080832081516060810183528154871680825260019092015496871693810193909352600160a01b90950463ffffffff169082015290929091146104505760405162461bcd60e51b815260206004820152600d60248201526c3ab735b737bbb7103a37b5b2b760991b60448201526064016102dd565b60c9546020820151604080840151905163a31426d160e01b81526000936001600160a01b03169263a31426d1926104a3926004016001600160a01b0392909216825263ffffffff16602082015260400190565b602060405180830381865afa1580156104c0573d6000803e3d6000fd5b505050506040513d601f19601f820116820180604052508101906104e491906113dd565b9050600082602001516001600160a01b0316632c8ce6bc6040518163ffffffff1660e01b8152600401606060405180830381865afa15801561052a573d6000803e3d6000fd5b505050506040513d601f19601f8201168201806040525081019061054e91906113f6565b50509050670de0b6b3a76400008260ca60009054906101000a90046001600160a01b03166001600160a01b03166341976e09846001600160a01b03166376d5de856040518163ffffffff1660e01b8152600401602060405180830381865afa1580156105be573d6000803e3d6000fd5b505050506040513d601f19601f820116820180604052508101906105e29190611438565b6040516001600160e01b031960e084901b1681526001600160a01b039091166004820152602401602060405180830381865afa158015610626573d6000803e3d6000fd5b505050506040513d601f19601f8201168201806040525081019061064a91906113dd565b6106549190611455565b61065e9190611480565b95945050505050565b61066f610e6a565b6106796000611027565b565b60655433906001600160a01b031681146106e95760405162461bcd60e51b815260206004820152602960248201527f4f776e61626c6532537465703a2063616c6c6572206973206e6f7420746865206044820152683732bb9037bbb732b960b91b60648201526084016102dd565b6102b381611027565b80516001600160a01b03811661071a5760405162461bcd60e51b81526004016102dd906113ae565b60208201516001600160a01b0381166107455760405162461bcd60e51b81526004016102dd906113ae565b6107836040518060400160405280601b81526020017f736574546f6b656e436f6e66696728546f6b656e436f6e666967290000000000815250610f89565b610796836040015163ffffffff16611040565b826040015163ffffffff166000036107f05760405162461bcd60e51b815260206004820152601b60248201527f74776170206475726174696f6e2063616e2774206265207a65726f000000000060448201526064016102dd565b60c9546020840151604080860151905162439f4b60e91b81526001600160a01b03928316600482015263ffffffff90911660248201526000928392169063873e960090604401606060405180830381865afa158015610853573d6000803e3d6000fd5b505050506040513d601f19601f8201168201806040525081019061087791906114b7565b92505091508180610886575080155b156108a457604051637616640160e01b815260040160405180910390fd5b60008086602001516001600160a01b0316632c8ce6bc6040518163ffffffff1660e01b8152600401606060405180830381865afa1580156108e9573d6000803e3d6000fd5b505050506040513d601f19601f8201168201806040525081019061090d91906113f6565b5091509150806001600160a01b031687600001516001600160a01b0316146109655760405162461bcd60e51b815260206004820152600b60248201526a0e0e840dad2e6dac2e8c6d60ab1b60448201526064016102dd565b816001600160a01b0316816001600160a01b031663afd27bf56040518163ffffffff1660e01b8152600401602060405180830381865afa1580156109ad573d6000803e3d6000fd5b505050506040513d601f19601f820116820180604052508101906109d19190611438565b6001600160a01b031614610a155760405162461bcd60e51b815260206004820152600b60248201526a0e6f240dad2e6dac2e8c6d60ab1b60448201526064016102dd565b86516001600160a01b03908116600090815260cb60209081526040918290208a5181546001600160a01b0319169085169081178255828c015160019092018054858e0151939096166001600160c01b03199096168617600160a01b63ffffffff909416938402179055835194855291840152917f3476212a6434181e2196a8ec152bd7a5cf549670c30c31a60b74a1c3429700a4910160405180910390a250505050505050565b600054610100900460ff1615808015610adc5750600054600160ff909116105b80610af65750303b158015610af6575060005460ff166001145b610b595760405162461bcd60e51b815260206004820152602e60248201527f496e697469616c697a61626c653a20636f6e747261637420697320616c72656160448201526d191e481a5b9a5d1a585b1a5e995960921b60648201526084016102dd565b6000805460ff191660011790558015610b7c576000805461ff0019166101001790555b610b8584611061565b610b8e83611099565b610b9782611099565b60c980546001600160a01b0319166001600160a01b0385169081179091556040516000907f21db5401bd5e78956609ed0cae406d6987839e6c65e5e53faa465d9d34c5a343908290a360ca80546001600160a01b0319166001600160a01b0384169081179091556040516000907f195a1673a235ad1c615626e11f05b44d3358c1fe815ec7c8f24d54b014af7c06908290a38015610c6f576000805461ff0019169055604051600181527f7f26b83ff96e1f2b6a682f133852f6798a09c465da95921460cefb38474024989060200160405180910390a15b50505050565b806001600160a01b038116610c9c5760405162461bcd60e51b81526004016102dd906113ae565b610cda6040518060400160405280601e81526020017f736574556e6465726c79696e6750744f7261636c652861646472657373290000815250610f89565b6001600160a01b038216600003610d255760405162461bcd60e51b815260206004820152600f60248201526e696e76616c6964206164647265737360881b60448201526064016102dd565b60c980546001600160a01b038481166001600160a01b0319831681179093556040519116919082907f21db5401bd5e78956609ed0cae406d6987839e6c65e5e53faa465d9d34c5a34390600090a3505050565b8051600003610dbd5760405162461bcd60e51b815260206004820152601160248201527006c656e6774682063616e2774206265203607c1b60448201526064016102dd565b805160005b81811015610df457610dec838281518110610ddf57610ddf611503565b60200260200101516106f2565b600101610dc2565b505050565b610e01610e6a565b606580546001600160a01b0383166001600160a01b03199091168117909155610e326033546001600160a01b031690565b6001600160a01b03167f38d16b8cac22d99fc7c124b9cd0de2d3fa1faef420bfe791d8c362d765e2270060405160405180910390a350565b6033546001600160a01b031633146106795760405162461bcd60e51b815260206004820181905260248201527f4f776e61626c653a2063616c6c6572206973206e6f7420746865206f776e657260448201526064016102dd565b6001600160a01b038116610f285760405162461bcd60e51b815260206004820152602560248201527f696e76616c696420616365737320636f6e74726f6c206d616e61676572206164604482015264647265737360d81b60648201526084016102dd565b609780546001600160a01b038381166001600160a01b031983168117909355604080519190921680825260208201939093527f66fd58e82f7b31a2a5c30e0888f3093efe4e111b00cd2b0c31fe014601293aa0910160405180910390a15050565b6097546040516318c5e8ab60e01b81526000916001600160a01b0316906318c5e8ab90610fbc903390869060040161155f565b602060405180830381865afa158015610fd9573d6000803e3d6000fd5b505050506040513d601f19601f82011682018060405250810190610ffd919061158b565b90508061102357333083604051634a3fa29360e01b81526004016102dd939291906115a6565b5050565b606580546001600160a01b03191690556102b3816110c0565b806000036102b35760405163273e150360e21b815260040160405180910390fd5b600054610100900460ff166110885760405162461bcd60e51b81526004016102dd906115d2565b611090611112565b6102b381611141565b6001600160a01b0381166102b3576040516342bcdf7f60e11b815260040160405180910390fd5b603380546001600160a01b038381166001600160a01b0319831681179093556040519116919082907f8be0079c531659141344cd1fd0a4f28419497f9722a3daafe3b4186f6b6457e090600090a35050565b600054610100900460ff166111395760405162461bcd60e51b81526004016102dd906115d2565b610679611168565b600054610100900460ff166102aa5760405162461bcd60e51b81526004016102dd906115d2565b600054610100900460ff1661118f5760405162461bcd60e51b81526004016102dd906115d2565b61067933611027565b6001600160a01b03811681146102b357600080fd5b6000602082840312156111bf57600080fd5b81356111ca81611198565b9392505050565b634e487b7160e01b600052604160045260246000fd5b604051601f8201601f1916810167ffffffffffffffff81118282101715611210576112106111d1565b604052919050565b60006060828403121561122a57600080fd5b6040516060810181811067ffffffffffffffff8211171561124d5761124d6111d1565b604052905080823561125e81611198565b8152602083013561126e81611198565b6020820152604083013563ffffffff8116811461128a57600080fd5b6040919091015292915050565b6000606082840312156112a957600080fd5b6111ca8383611218565b6000806000606084860312156112c857600080fd5b83356112d381611198565b925060208401356112e381611198565b915060408401356112f381611198565b809150509250925092565b6000602080838503121561131157600080fd5b823567ffffffffffffffff8082111561132957600080fd5b818501915085601f83011261133d57600080fd5b81358181111561134f5761134f6111d1565b61135d848260051b016111e7565b8181528481019250606091820284018501918883111561137c57600080fd5b938501935b828510156113a2576113938986611218565b84529384019392850192611381565b50979650505050505050565b60208082526015908201527463616e2774206265207a65726f206164647265737360581b604082015260600190565b6000602082840312156113ef57600080fd5b5051919050565b60008060006060848603121561140b57600080fd5b835161141681611198565b602085015190935061142781611198565b60408501519092506112f381611198565b60006020828403121561144a57600080fd5b81516111ca81611198565b808202811582820484141761147a57634e487b7160e01b600052601160045260246000fd5b92915050565b60008261149d57634e487b7160e01b600052601260045260246000fd5b500490565b805180151581146114b257600080fd5b919050565b6000806000606084860312156114cc57600080fd5b6114d5846114a2565b9250602084015161ffff811681146114ec57600080fd5b91506114fa604085016114a2565b90509250925092565b634e487b7160e01b600052603260045260246000fd5b6000815180845260005b8181101561153f57602081850181015186830182015201611523565b506000602082860101526020601f19601f83011685010191505092915050565b6001600160a01b038316815260406020820181905260009061158390830184611519565b949350505050565b60006020828403121561159d57600080fd5b6111ca826114a2565b6001600160a01b0384811682528316602082015260606040820181905260009061065e90830184611519565b6020808252602b908201527f496e697469616c697a61626c653a20636f6e7472616374206973206e6f74206960408201526a6e697469616c697a696e6760a81b60608201526080019056fea26469706673582212203f858629a91538f7cb405d3e71c13411bf74ce1ee257721c6ee0e3d0c7b11db564736f6c63430008190033",
  "devdoc": {
    "author": "Venus",
    "events": {
      "Initialized(uint8)": {
        "details": "Triggered when the contract has been initialized or reinitialized."
      }
    },
    "kind": "dev",
    "methods": {
      "acceptOwnership()": {
        "details": "The new owner accepts the ownership transfer."
      },
      "constructor": {
        "custom:oz-upgrades-unsafe-allow": "constructor"
      },
      "getPrice(address)": {
        "params": {
          "asset": "Address of the asset"
        },
        "returns": {
          "_0": "Price in USD from Chainlink or a manually set price for the asset"
        }
      },
      "initialize(address,address,address)": {
        "params": {
          "accessControlManager_": "Address of the access control manager contract"
        }
      },
      "owner()": {
        "details": "Returns the address of the current owner."
      },
      "pendingOwner()": {
        "details": "Returns the address of the pending owner."
      },
      "renounceOwnership()": {
        "details": "Leaves the contract without owner. It will not be possible to call `onlyOwner` functions. Can only be called by the current owner. NOTE: Renouncing ownership will leave the contract without an owner, thereby disabling any functionality that is only available to the owner."
      },
      "setAccessControlManager(address)": {
        "custom:access": "Only Governance",
        "custom:event": "Emits NewAccessControlManager event",
        "details": "Admin function to set address of AccessControlManager",
        "params": {
          "accessControlManager_": "The new address of the AccessControlManager"
        }
      },
      "setIntermediateOracle(address)": {
        "custom:access": "Only Governance",
        "custom:error": "NotNullAddress error thrown if intermediateOracle_ address is zero",
        "custom:event": "Emits IntermediateOracleSet event with address of Pyth oracle.",
        "params": {
          "intermediateOracle_": "Pyth oracle contract address"
        }
      },
      "setTokenConfig((address,address,uint32))": {
        "custom:access": "Only Governance",
        "custom:error": "NotNullAddress error is thrown if asset address is nullNotNullAddress error is thrown if token feed address is nullRange error is thrown if twap duration of token is not greater than zero",
        "custom:event": "Emits TokenConfigAdded event on succesfully setting of the token config",
        "params": {
          "tokenConfig": "Token config struct"
        }
      },
      "setTokenConfigs((address,address,uint32)[])": {
        "custom:access": "Only Governance",
        "custom:error": "Zero length error thrown, if length of the array in parameter is 0",
        "params": {
          "tokenConfigs_": "config array"
        }
      },
      "setUnderlyingPtOracle(address)": {
        "custom:access": "Only Governance",
        "custom:error": "NotNullAddress error thrown if underlyingPtOracle_ address is zero",
        "custom:event": "Emits PtOracleSet event with address of Pt oracle.",
        "params": {
          "underlyingPtOracle_": "Pt oracle contract address"
        }
      },
      "transferOwnership(address)": {
        "details": "Starts the ownership transfer of the contract to a new account. Replaces the pending transfer if there is one. Can only be called by the current owner."
      }
    },
    "stateVariables": {
      "underlyingPtOracle": {
        "custom:oz-upgrades-unsafe-allow": "state-variable-immutable"
      }
    },
    "title": "PendleOracle",
    "version": 1
  },
  "userdoc": {
    "errors": {
      "InvalidDuration()": [
        {
          "notice": "Thrown if the duration is invalid"
        }
      ],
      "Unauthorized(address,address,string)": [
        {
          "notice": "Thrown when the action is prohibited by AccessControlManager"
        }
      ],
      "ZeroAddressNotAllowed()": [
        {
          "notice": "Thrown if the supplied address is a zero address where it is not allowed"
        }
      ],
      "ZeroValueNotAllowed()": [
        {
          "notice": "Thrown if the supplied value is 0 where it is not allowed"
        }
      ]
    },
    "events": {
      "NewAccessControlManager(address,address)": {
        "notice": "Emitted when access control manager contract address is changed"
      },
      "PtOracleSet(address,address)": {
        "notice": "Emit when setting a new pt oracle address"
      },
      "TokenConfigAdded(address,address,uint32)": {
        "notice": "Emit when a token config is added"
      }
    },
    "kind": "user",
    "methods": {
      "accessControlManager()": {
        "notice": "Returns the address of the access control manager contract"
      },
      "constructor": {
        "notice": "Constructor for the implementation contract."
      },
      "getPrice(address)": {
        "notice": "Gets the price of a asset from the chainlink oracle"
      },
      "initialize(address,address,address)": {
        "notice": "Initializes the owner of the contract"
      },
      "setAccessControlManager(address)": {
        "notice": "Sets the address of AccessControlManager"
      },
      "setIntermediateOracle(address)": {
        "notice": "Set the underlying Pyth oracle contract address"
      },
      "setTokenConfig((address,address,uint32))": {
        "notice": "Add single token config. asset & feed cannot be null addresses and maxStalePeriod must be positive"
      },
      "setTokenConfigs((address,address,uint32)[])": {
        "notice": "Add multiple token configs at the same time"
      },
      "setUnderlyingPtOracle(address)": {
        "notice": "Set the underlying Pt oracle contract address"
      },
      "tokenConfigs(address)": {
        "notice": "Token config by assets"
      },
      "underlyingPtOracle()": {
        "notice": "Address of the PT oracle"
      }
    },
    "notice": "This oracle fetches the price of a pendle token",
    "version": 1
  },
  "storageLayout": {
    "storage": [
      {
        "astId": 246,
        "contract": "contracts/oracles/PendleOracle.sol:PendleOracle",
        "label": "_initialized",
        "offset": 0,
        "slot": "0",
        "type": "t_uint8"
      },
      {
        "astId": 249,
        "contract": "contracts/oracles/PendleOracle.sol:PendleOracle",
        "label": "_initializing",
        "offset": 1,
        "slot": "0",
        "type": "t_bool"
      },
      {
        "astId": 788,
        "contract": "contracts/oracles/PendleOracle.sol:PendleOracle",
        "label": "__gap",
        "offset": 0,
        "slot": "1",
        "type": "t_array(t_uint256)50_storage"
      },
      {
        "astId": 118,
        "contract": "contracts/oracles/PendleOracle.sol:PendleOracle",
        "label": "_owner",
        "offset": 0,
        "slot": "51",
        "type": "t_address"
      },
      {
        "astId": 238,
        "contract": "contracts/oracles/PendleOracle.sol:PendleOracle",
        "label": "__gap",
        "offset": 0,
        "slot": "52",
        "type": "t_array(t_uint256)49_storage"
      },
      {
        "astId": 11,
        "contract": "contracts/oracles/PendleOracle.sol:PendleOracle",
        "label": "_pendingOwner",
        "offset": 0,
        "slot": "101",
        "type": "t_address"
      },
      {
        "astId": 105,
        "contract": "contracts/oracles/PendleOracle.sol:PendleOracle",
        "label": "__gap",
        "offset": 0,
        "slot": "102",
        "type": "t_array(t_uint256)49_storage"
      },
      {
        "astId": 979,
        "contract": "contracts/oracles/PendleOracle.sol:PendleOracle",
        "label": "_accessControlManager",
        "offset": 0,
        "slot": "151",
        "type": "t_contract(IAccessControlManagerV8)1164"
      },
      {
        "astId": 984,
        "contract": "contracts/oracles/PendleOracle.sol:PendleOracle",
        "label": "__gap",
        "offset": 0,
        "slot": "152",
        "type": "t_array(t_uint256)49_storage"
      },
      {
        "astId": 1900,
        "contract": "contracts/oracles/PendleOracle.sol:PendleOracle",
        "label": "underlyingPtOracle",
        "offset": 0,
        "slot": "201",
        "type": "t_contract(IPendlePtOracle)1631"
      },
      {
        "astId": 1903,
        "contract": "contracts/oracles/PendleOracle.sol:PendleOracle",
        "label": "intermediateOracle",
        "offset": 0,
        "slot": "202",
        "type": "t_contract(OracleInterface)1824"
      },
      {
        "astId": 1909,
        "contract": "contracts/oracles/PendleOracle.sol:PendleOracle",
        "label": "tokenConfigs",
        "offset": 0,
        "slot": "203",
        "type": "t_mapping(t_address,t_struct(TokenConfig)1896_storage)"
      }
    ],
    "types": {
      "t_address": {
        "encoding": "inplace",
        "label": "address",
        "numberOfBytes": "20"
      },
      "t_array(t_uint256)49_storage": {
        "base": "t_uint256",
        "encoding": "inplace",
        "label": "uint256[49]",
        "numberOfBytes": "1568"
      },
      "t_array(t_uint256)50_storage": {
        "base": "t_uint256",
        "encoding": "inplace",
        "label": "uint256[50]",
        "numberOfBytes": "1600"
      },
      "t_bool": {
        "encoding": "inplace",
        "label": "bool",
        "numberOfBytes": "1"
      },
      "t_contract(IAccessControlManagerV8)1164": {
        "encoding": "inplace",
        "label": "contract IAccessControlManagerV8",
        "numberOfBytes": "20"
      },
      "t_contract(IPendlePtOracle)1631": {
        "encoding": "inplace",
        "label": "contract IPendlePtOracle",
        "numberOfBytes": "20"
      },
      "t_contract(OracleInterface)1824": {
        "encoding": "inplace",
        "label": "contract OracleInterface",
        "numberOfBytes": "20"
      },
      "t_mapping(t_address,t_struct(TokenConfig)1896_storage)": {
        "encoding": "mapping",
        "key": "t_address",
        "label": "mapping(address => struct PendleOracle.TokenConfig)",
        "numberOfBytes": "32",
        "value": "t_struct(TokenConfig)1896_storage"
      },
      "t_struct(TokenConfig)1896_storage": {
        "encoding": "inplace",
        "label": "struct PendleOracle.TokenConfig",
        "members": [
          {
            "astId": 1889,
            "contract": "contracts/oracles/PendleOracle.sol:PendleOracle",
            "label": "asset",
            "offset": 0,
            "slot": "0",
            "type": "t_address"
          },
          {
            "astId": 1892,
            "contract": "contracts/oracles/PendleOracle.sol:PendleOracle",
            "label": "market",
            "offset": 0,
            "slot": "1",
            "type": "t_address"
          },
          {
            "astId": 1895,
            "contract": "contracts/oracles/PendleOracle.sol:PendleOracle",
            "label": "twapDuration",
            "offset": 20,
            "slot": "1",
            "type": "t_uint32"
          }
        ],
        "numberOfBytes": "64"
      },
      "t_uint256": {
        "encoding": "inplace",
        "label": "uint256",
        "numberOfBytes": "32"
      },
      "t_uint32": {
        "encoding": "inplace",
        "label": "uint32",
        "numberOfBytes": "4"
      },
      "t_uint8": {
        "encoding": "inplace",
        "label": "uint8",
        "numberOfBytes": "1"
      }
    }
  }
}